{
  "contractName": "Controller",
  "abi": [
    {
      "inputs": [
        {
          "internalType": "address",
          "name": "_storage",
          "type": "address"
        },
        {
          "internalType": "address",
          "name": "_feeRewardForwarder",
          "type": "address"
        }
      ],
      "payable": false,
      "stateMutability": "nonpayable",
      "type": "constructor"
    },
    {
      "constant": true,
      "inputs": [],
      "name": "feeRewardForwarder",
      "outputs": [
        {
          "internalType": "address",
          "name": "",
          "type": "address"
        }
      ],
      "payable": false,
      "stateMutability": "view",
      "type": "function"
    },
    {
      "constant": true,
      "inputs": [],
      "name": "governance",
      "outputs": [
        {
          "internalType": "address",
          "name": "",
          "type": "address"
        }
      ],
      "payable": false,
      "stateMutability": "view",
      "type": "function"
    },
    {
      "constant": true,
      "inputs": [
        {
          "internalType": "address",
          "name": "",
          "type": "address"
        }
      ],
      "name": "greyList",
      "outputs": [
        {
          "internalType": "bool",
          "name": "",
          "type": "bool"
        }
      ],
      "payable": false,
      "stateMutability": "view",
      "type": "function"
    },
    {
      "constant": true,
      "inputs": [],
      "name": "hardRewards",
      "outputs": [
        {
          "internalType": "contract HardRewards",
          "name": "",
          "type": "address"
        }
      ],
      "payable": false,
      "stateMutability": "view",
      "type": "function"
    },
    {
      "constant": true,
      "inputs": [
        {
          "internalType": "address",
          "name": "",
          "type": "address"
        }
      ],
      "name": "hardWorkers",
      "outputs": [
        {
          "internalType": "bool",
          "name": "",
          "type": "bool"
        }
      ],
      "payable": false,
      "stateMutability": "view",
      "type": "function"
    },
    {
      "constant": true,
      "inputs": [],
      "name": "profitSharingDenominator",
      "outputs": [
        {
          "internalType": "uint256",
          "name": "",
          "type": "uint256"
        }
      ],
      "payable": false,
      "stateMutability": "view",
      "type": "function"
    },
    {
      "constant": true,
      "inputs": [],
      "name": "profitSharingNumerator",
      "outputs": [
        {
          "internalType": "uint256",
          "name": "",
          "type": "uint256"
        }
      ],
      "payable": false,
      "stateMutability": "view",
      "type": "function"
    },
    {
      "constant": false,
      "inputs": [
        {
          "internalType": "address",
          "name": "_store",
          "type": "address"
        }
      ],
      "name": "setStorage",
      "outputs": [],
      "payable": false,
      "stateMutability": "nonpayable",
      "type": "function"
    },
    {
      "constant": true,
      "inputs": [],
      "name": "store",
      "outputs": [
        {
          "internalType": "contract Storage",
          "name": "",
          "type": "address"
        }
      ],
      "payable": false,
      "stateMutability": "view",
      "type": "function"
    },
    {
      "constant": true,
      "inputs": [
        {
          "internalType": "address",
          "name": "",
          "type": "address"
        }
      ],
      "name": "vaults",
      "outputs": [
        {
          "internalType": "bool",
          "name": "",
          "type": "bool"
        }
      ],
      "payable": false,
      "stateMutability": "view",
      "type": "function"
    },
    {
      "constant": false,
      "inputs": [
        {
          "internalType": "address",
          "name": "_worker",
          "type": "address"
        }
      ],
      "name": "addHardWorker",
      "outputs": [],
      "payable": false,
      "stateMutability": "nonpayable",
      "type": "function"
    },
    {
      "constant": false,
      "inputs": [
        {
          "internalType": "address",
          "name": "_worker",
          "type": "address"
        }
      ],
      "name": "removeHardWorker",
      "outputs": [],
      "payable": false,
      "stateMutability": "nonpayable",
      "type": "function"
    },
    {
      "constant": false,
      "inputs": [
        {
          "internalType": "address",
          "name": "_vault",
          "type": "address"
        }
      ],
      "name": "hasVault",
      "outputs": [
        {
          "internalType": "bool",
          "name": "",
          "type": "bool"
        }
      ],
      "payable": false,
      "stateMutability": "nonpayable",
      "type": "function"
    },
    {
      "constant": false,
      "inputs": [
        {
          "internalType": "address",
          "name": "_target",
          "type": "address"
        }
      ],
      "name": "addToGreyList",
      "outputs": [],
      "payable": false,
      "stateMutability": "nonpayable",
      "type": "function"
    },
    {
      "constant": false,
      "inputs": [
        {
          "internalType": "address",
          "name": "_target",
          "type": "address"
        }
      ],
      "name": "removeFromGreyList",
      "outputs": [],
      "payable": false,
      "stateMutability": "nonpayable",
      "type": "function"
    },
    {
      "constant": false,
      "inputs": [
        {
          "internalType": "address",
          "name": "_feeRewardForwarder",
          "type": "address"
        }
      ],
      "name": "setFeeRewardForwarder",
      "outputs": [],
      "payable": false,
      "stateMutability": "nonpayable",
      "type": "function"
    },
    {
      "constant": false,
      "inputs": [
        {
          "internalType": "address",
          "name": "_vault",
          "type": "address"
        },
        {
          "internalType": "address",
          "name": "_strategy",
          "type": "address"
        }
      ],
      "name": "addVaultAndStrategy",
      "outputs": [],
      "payable": false,
      "stateMutability": "nonpayable",
      "type": "function"
    },
    {
      "constant": false,
      "inputs": [
        {
          "internalType": "address",
          "name": "_vault",
          "type": "address"
        }
      ],
      "name": "doHardWork",
      "outputs": [],
      "payable": false,
      "stateMutability": "nonpayable",
      "type": "function"
    },
    {
      "constant": false,
      "inputs": [
        {
          "internalType": "address",
          "name": "_hardRewards",
          "type": "address"
        }
      ],
      "name": "setHardRewards",
      "outputs": [],
      "payable": false,
      "stateMutability": "nonpayable",
      "type": "function"
    },
    {
      "constant": false,
      "inputs": [
        {
          "internalType": "address",
          "name": "_token",
          "type": "address"
        },
        {
          "internalType": "uint256",
          "name": "_amount",
          "type": "uint256"
        }
      ],
      "name": "salvage",
      "outputs": [],
      "payable": false,
      "stateMutability": "nonpayable",
      "type": "function"
    },
    {
      "constant": false,
      "inputs": [
        {
          "internalType": "address",
          "name": "_strategy",
          "type": "address"
        },
        {
          "internalType": "address",
          "name": "_token",
          "type": "address"
        },
        {
          "internalType": "uint256",
          "name": "_amount",
          "type": "uint256"
        }
      ],
      "name": "salvageStrategy",
      "outputs": [],
      "payable": false,
      "stateMutability": "nonpayable",
      "type": "function"
    },
    {
      "constant": false,
      "inputs": [
        {
          "internalType": "address",
          "name": "underlying",
          "type": "address"
        },
        {
          "internalType": "uint256",
          "name": "fee",
          "type": "uint256"
        }
      ],
      "name": "notifyFee",
      "outputs": [],
      "payable": false,
      "stateMutability": "nonpayable",
      "type": "function"
    }
  ],
  "bytecode": "0x608060405234801561001057600080fd5b50604051611a03380380611a038339818101604052604081101561003357600080fd5b508051602090910151816001600160a01b038116610098576040805162461bcd60e51b815260206004820152601e60248201527f6e65772073746f726167652073686f756c646e277420626520656d7074790000604482015290519081900360640190fd5b600080546001600160a01b0319166001600160a01b0392831617905581166100f15760405162461bcd60e51b81526004018080602001828103825260268152602001806119dd6026913960400191505060405180910390fd5b600180546001600160a01b0319166001600160a01b0392909216919091179055506118bc806101216000396000f3fe608060405234801561001057600080fd5b50600436106101425760003560e01c80636e4af83e116100b8578063ae28d1281161007c578063ae28d128146103a7578063b60f151a146103af578063b8393eaf146103b7578063d0fc3e83146103dd578063ed32fa33146103e5578063f706bf281461041357610142565b80636e4af83e14610307578063818601701461032d5780639137c1a714610353578063975057e714610379578063a622ee7c1461038157610142565b80633259eeb61161010a5780633259eeb61461020f57806338dd98761461023557806338f5a5e41461025b5780633e3309cc1461028157806358d94fbc146102ad5780635aa6e675146102e357610142565b8063026a0dd0146101475780630af210a1146101615780630d453efb14610189578063301153f1146101c357806330e412ad146101e9575b600080fd5b61014f61043f565b60408051918252519081900360200190f35b6101876004803603602081101561017757600080fd5b50356001600160a01b0316610444565b005b6101af6004803603602081101561019f57600080fd5b50356001600160a01b0316610609565b604080519115158252519081900360200190f35b610187600480360360208110156101d957600080fd5b50356001600160a01b0316610627565b6101af600480360360208110156101ff57600080fd5b50356001600160a01b0316610759565b6101876004803603602081101561022557600080fd5b50356001600160a01b031661076e565b6101876004803603602081101561024b57600080fd5b50356001600160a01b031661089d565b6101876004803603602081101561027157600080fd5b50356001600160a01b0316610978565b6101876004803603604081101561029757600080fd5b506001600160a01b038135169060200135610a55565b610187600480360360608110156102c357600080fd5b506001600160a01b03813581169160208101359091169060400135610b30565b6102eb610c72565b604080516001600160a01b039092168252519081900360200190f35b6101876004803603602081101561031d57600080fd5b50356001600160a01b0316610cf2565b6101876004803603602081101561034357600080fd5b50356001600160a01b0316610dcc565b6101876004803603602081101561036957600080fd5b50356001600160a01b0316610eec565b6102eb611022565b6101af6004803603602081101561039757600080fd5b50356001600160a01b0316611031565b6102eb611046565b61014f611055565b6101af600480360360208110156103cd57600080fd5b50356001600160a01b031661105a565b6102eb61106f565b610187600480360360408110156103fb57600080fd5b506001600160a01b038135811691602001351661107e565b6101876004803603604081101561042957600080fd5b506001600160a01b038135169060200135611364565b606481565b3360009081526005602052604090205460ff168061047a5750610465610c72565b6001600160a01b0316336001600160a01b0316145b6104cb576040805162461bcd60e51b815260206004820152601e60248201527f6f6e6c79206861726420776f726b65722063616e2063616c6c20746869730000604482015290519081900360640190fd5b6001600160a01b038116600090815260036020526040902054819060ff16610531576040805162461bcd60e51b81526020600482015260146024820152731d985d5b1d08191bd95cc81b9bdd08195e1a5cdd60621b604482015290519081900360640190fd5b816001600160a01b0316634fa5d8546040518163ffffffff1660e01b8152600401600060405180830381600087803b15801561056c57600080fd5b505af1158015610580573d6000803e3d6000fd5b50506004546001600160a01b031615915061060590505760048054604080516333b54be160e01b815233938101939093526001600160a01b03858116602485015290519116916333b54be191604480830192600092919082900301818387803b1580156105ec57600080fd5b505af1158015610600573d6000803e3d6000fd5b505050505b5050565b6001600160a01b031660009081526003602052604090205460ff1690565b600054604080516337b87c3960e21b815233600482015290516001600160a01b039092169163dee1f0e491602480820192602092909190829003018186803b15801561067257600080fd5b505afa158015610686573d6000803e3d6000fd5b505050506040513d602081101561069c57600080fd5b50516106e0576040805162461bcd60e51b815260206004820152600e60248201526d4e6f7420676f7665726e616e636560901b604482015290519081900360640190fd5b6001600160a01b038116610735576040805162461bcd60e51b815260206004820152601760248201527617dddbdc9ad95c881b5d5cdd081899481919599a5b9959604a1b604482015290519081900360640190fd5b6001600160a01b03166000908152600560205260409020805460ff19166001179055565b60026020526000908152604090205460ff1681565b600054604080516337b87c3960e21b815233600482015290516001600160a01b039092169163dee1f0e491602480820192602092909190829003018186803b1580156107b957600080fd5b505afa1580156107cd573d6000803e3d6000fd5b505050506040513d60208110156107e357600080fd5b5051610827576040805162461bcd60e51b815260206004820152600e60248201526d4e6f7420676f7665726e616e636560901b604482015290519081900360640190fd5b6001600160a01b03811661087c576040805162461bcd60e51b815260206004820152601760248201527617dddbdc9ad95c881b5d5cdd081899481919599a5b9959604a1b604482015290519081900360640190fd5b6001600160a01b03166000908152600560205260409020805460ff19169055565b600054604080516337b87c3960e21b815233600482015290516001600160a01b039092169163dee1f0e491602480820192602092909190829003018186803b1580156108e857600080fd5b505afa1580156108fc573d6000803e3d6000fd5b505050506040513d602081101561091257600080fd5b5051610956576040805162461bcd60e51b815260206004820152600e60248201526d4e6f7420676f7665726e616e636560901b604482015290519081900360640190fd5b600480546001600160a01b0319166001600160a01b0392909216919091179055565b600054604080516337b87c3960e21b815233600482015290516001600160a01b039092169163dee1f0e491602480820192602092909190829003018186803b1580156109c357600080fd5b505afa1580156109d7573d6000803e3d6000fd5b505050506040513d60208110156109ed57600080fd5b5051610a31576040805162461bcd60e51b815260206004820152600e60248201526d4e6f7420676f7665726e616e636560901b604482015290519081900360640190fd5b6001600160a01b03166000908152600260205260409020805460ff19166001179055565b600054604080516337b87c3960e21b815233600482015290516001600160a01b039092169163dee1f0e491602480820192602092909190829003018186803b158015610aa057600080fd5b505afa158015610ab4573d6000803e3d6000fd5b505050506040513d6020811015610aca57600080fd5b5051610b0e576040805162461bcd60e51b815260206004820152600e60248201526d4e6f7420676f7665726e616e636560901b604482015290519081900360640190fd5b610605610b19610c72565b6001600160a01b038416908363ffffffff61141b16565b600054604080516337b87c3960e21b815233600482015290516001600160a01b039092169163dee1f0e491602480820192602092909190829003018186803b158015610b7b57600080fd5b505afa158015610b8f573d6000803e3d6000fd5b505050506040513d6020811015610ba557600080fd5b5051610be9576040805162461bcd60e51b815260206004820152600e60248201526d4e6f7420676f7665726e616e636560901b604482015290519081900360640190fd5b826001600160a01b0316631113ef52610c00610c72565b604080516001600160e01b031960e085901b1681526001600160a01b03928316600482015291861660248301526044820185905251606480830192600092919082900301818387803b158015610c5557600080fd5b505af1158015610c69573d6000803e3d6000fd5b50505050505050565b60008060009054906101000a90046001600160a01b03166001600160a01b0316635aa6e6756040518163ffffffff1660e01b815260040160206040518083038186803b158015610cc157600080fd5b505afa158015610cd5573d6000803e3d6000fd5b505050506040513d6020811015610ceb57600080fd5b5051905090565b600054604080516337b87c3960e21b815233600482015290516001600160a01b039092169163dee1f0e491602480820192602092909190829003018186803b158015610d3d57600080fd5b505afa158015610d51573d6000803e3d6000fd5b505050506040513d6020811015610d6757600080fd5b5051610dab576040805162461bcd60e51b815260206004820152600e60248201526d4e6f7420676f7665726e616e636560901b604482015290519081900360640190fd5b6001600160a01b03166000908152600260205260409020805460ff19169055565b600054604080516337b87c3960e21b815233600482015290516001600160a01b039092169163dee1f0e491602480820192602092909190829003018186803b158015610e1757600080fd5b505afa158015610e2b573d6000803e3d6000fd5b505050506040513d6020811015610e4157600080fd5b5051610e85576040805162461bcd60e51b815260206004820152600e60248201526d4e6f7420676f7665726e616e636560901b604482015290519081900360640190fd5b6001600160a01b038116610eca5760405162461bcd60e51b81526004018080602001828103825260288152602001806118006028913960400191505060405180910390fd5b600180546001600160a01b0319166001600160a01b0392909216919091179055565b600054604080516337b87c3960e21b815233600482015290516001600160a01b039092169163dee1f0e491602480820192602092909190829003018186803b158015610f3757600080fd5b505afa158015610f4b573d6000803e3d6000fd5b505050506040513d6020811015610f6157600080fd5b5051610fa5576040805162461bcd60e51b815260206004820152600e60248201526d4e6f7420676f7665726e616e636560901b604482015290519081900360640190fd5b6001600160a01b038116611000576040805162461bcd60e51b815260206004820152601e60248201527f6e65772073746f726167652073686f756c646e277420626520656d7074790000604482015290519081900360640190fd5b600080546001600160a01b0319166001600160a01b0392909216919091179055565b6000546001600160a01b031681565b60036020526000908152604090205460ff1681565b6001546001600160a01b031681565b600581565b60056020526000908152604090205460ff1681565b6004546001600160a01b031681565b600054604080516337b87c3960e21b815233600482015290516001600160a01b039092169163dee1f0e491602480820192602092909190829003018186803b1580156110c957600080fd5b505afa1580156110dd573d6000803e3d6000fd5b505050506040513d60208110156110f357600080fd5b5051611137576040805162461bcd60e51b815260206004820152600e60248201526d4e6f7420676f7665726e616e636560901b604482015290519081900360640190fd5b6001600160a01b038216611192576040805162461bcd60e51b815260206004820152601c60248201527f6e6577207661756c742073686f756c646e277420626520656d70747900000000604482015290519081900360640190fd5b6001600160a01b03821660009081526003602052604090205460ff16156111f7576040805162461bcd60e51b81526020600482015260146024820152737661756c7420616c72656164792065786973747360601b604482015290519081900360640190fd5b6001600160a01b038116611252576040805162461bcd60e51b815260206004820152601f60248201527f6e65772073747261746567792073686f756c646e277420626520656d70747900604482015290519081900360640190fd5b816001600160a01b0316816001600160a01b031663fbfa77cf6040518163ffffffff1660e01b815260040160206040518083038186803b15801561129557600080fd5b505afa1580156112a9573d6000803e3d6000fd5b505050506040513d60208110156112bf57600080fd5b50516001600160a01b0316146113065760405162461bcd60e51b815260040180806020018281038252602a8152602001806117d6602a913960400191505060405180910390fd5b6001600160a01b03808316600081815260036020526040808220805460ff1916600117905580516319d0806560e11b815293851660048501525191926333a100ca926024808301939282900301818387803b1580156105ec57600080fd5b8015610605576113856001600160a01b03831633308463ffffffff61147216565b6001546113a6906001600160a01b038481169116600063ffffffff6114d216565b6001546113c6906001600160a01b0384811691168363ffffffff6114d216565b60015460408051632106bc9160e21b81526001600160a01b038581166004830152602482018590529151919092169163841af24491604480830192600092919082900301818387803b1580156105ec57600080fd5b604080516001600160a01b038416602482015260448082018490528251808303909101815260649091019091526020810180516001600160e01b031663a9059cbb60e01b17905261146d9084906115e1565b505050565b604080516001600160a01b0385811660248301528416604482015260648082018490528251808303909101815260849091019091526020810180516001600160e01b03166323b872dd60e01b1790526114cc9085906115e1565b50505050565b801580611558575060408051636eb1769f60e11b81523060048201526001600160a01b03848116602483015291519185169163dd62ed3e91604480820192602092909190829003018186803b15801561152a57600080fd5b505afa15801561153e573d6000803e3d6000fd5b505050506040513d602081101561155457600080fd5b5051155b6115935760405162461bcd60e51b81526004018080602001828103825260368152602001806118526036913960400191505060405180910390fd5b604080516001600160a01b038416602482015260448082018490528251808303909101815260649091019091526020810180516001600160e01b031663095ea7b360e01b17905261146d9084905b6115f3826001600160a01b0316611799565b611644576040805162461bcd60e51b815260206004820152601f60248201527f5361666545524332303a2063616c6c20746f206e6f6e2d636f6e747261637400604482015290519081900360640190fd5b60006060836001600160a01b0316836040518082805190602001908083835b602083106116825780518252601f199092019160209182019101611663565b6001836020036101000a0380198251168184511680821785525050505050509050019150506000604051808303816000865af19150503d80600081146116e4576040519150601f19603f3d011682016040523d82523d6000602084013e6116e9565b606091505b509150915081611740576040805162461bcd60e51b815260206004820181905260248201527f5361666545524332303a206c6f772d6c6576656c2063616c6c206661696c6564604482015290519081900360640190fd5b8051156114cc5780806020019051602081101561175c57600080fd5b50516114cc5760405162461bcd60e51b815260040180806020018281038252602a815260200180611828602a913960400191505060405180910390fd5b6000813f7fc5d2460186f7233c927e7db2dcc703c0e500b653ca82273b7bfad8045d85a4708181148015906117cd57508115155b94935050505056fe74686520737472617465677920646f6573206e6f742062656c6f6e6720746f2074686973207661756c746e65772072657761726420666f727761726465722073686f756c64206e6f7420626520656d7074795361666545524332303a204552433230206f7065726174696f6e20646964206e6f7420737563636565645361666545524332303a20617070726f76652066726f6d206e6f6e2d7a65726f20746f206e6f6e2d7a65726f20616c6c6f77616e6365a265627a7a72315820c86e75fbabf59695b96f83d4027bfb608cab114de04d18a606fd087047e3340864736f6c63430005100032666565526577617264466f727761726465722073686f756c64206e6f7420626520656d707479",
  "source": "pragma solidity 0.5.16;\n\nimport \"@openzeppelin/contracts/utils/Address.sol\";\nimport \"@openzeppelin/contracts/math/SafeMath.sol\";\nimport \"@openzeppelin/contracts/token/ERC20/SafeERC20.sol\";\nimport \"@openzeppelin/contracts/token/ERC20/IERC20.sol\";\nimport \"./hardworkInterface/IController.sol\";\nimport \"./hardworkInterface/IStrategy.sol\";\nimport \"./hardworkInterface/IVault.sol\";\nimport \"./FeeRewardForwarder.sol\";\nimport \"./Governable.sol\";\nimport \"./HardRewards.sol\";\n\ncontract Controller is IController, Governable {\n\n    using SafeERC20 for IERC20;\n    using Address for address;\n    using SafeMath for uint256;\n\n    // external parties\n    address public feeRewardForwarder;\n\n    // [Grey list]\n    // An EOA can safely interact with the system no matter what.\n    // If you're using Metamask, you're using an EOA.\n    // Only smart contracts may be affected by this grey list.\n    //\n    // This contract will not be able to ban any EOA from the system\n    // even if an EOA is being added to the greyList, he/she will still be able\n    // to interact with the whole system as if nothing happened.\n    // Only smart contracts will be affected by being added to the greyList.\n    // This grey list is only used in Vault.sol, see the code there for reference\n    mapping (address => bool) public greyList;\n\n    // All vaults that we have\n    mapping (address => bool) public vaults;\n\n    // Rewards for hard work. Nullable.\n    HardRewards public hardRewards;\n\n    uint256 public constant profitSharingNumerator = 5;\n    uint256 public constant profitSharingDenominator = 100;\n\n    modifier validVault(address _vault){\n        require(vaults[_vault], \"vault does not exist\");\n        _;\n    }\n\n    mapping (address => bool) public hardWorkers;\n\n    modifier onlyHardWorkerOrGovernance() {\n        require(hardWorkers[msg.sender] || (msg.sender == governance()),\n        \"only hard worker can call this\");\n        _;\n    }\n\n    constructor(address _storage, address _feeRewardForwarder)\n    Governable(_storage) public {\n        require(_feeRewardForwarder != address(0), \"feeRewardForwarder should not be empty\");\n        feeRewardForwarder = _feeRewardForwarder;\n    }\n\n    function addHardWorker(address _worker) public onlyGovernance {\n      require(_worker != address(0), \"_worker must be defined\");\n      hardWorkers[_worker] = true;\n    }\n\n    function removeHardWorker(address _worker) public onlyGovernance {\n      require(_worker != address(0), \"_worker must be defined\");\n      hardWorkers[_worker] = false;\n    }\n\n    function hasVault(address _vault) external returns (bool) {\n      return vaults[_vault];\n    }\n\n    // Only smart contracts will be affected by the greyList.\n    function addToGreyList(address _target) public onlyGovernance {\n        greyList[_target] = true;\n    }\n\n    function removeFromGreyList(address _target) public onlyGovernance {\n        greyList[_target] = false;\n    }\n\n    function setFeeRewardForwarder(address _feeRewardForwarder) public onlyGovernance {\n      require(_feeRewardForwarder != address(0), \"new reward forwarder should not be empty\");\n      feeRewardForwarder = _feeRewardForwarder;\n    }\n\n    function addVaultAndStrategy(address _vault, address _strategy) external onlyGovernance {\n        require(_vault != address(0), \"new vault shouldn't be empty\");\n        require(!vaults[_vault], \"vault already exists\");\n        require(_strategy != address(0), \"new strategy shouldn't be empty\");\n        require(IStrategy(_strategy).vault() == _vault, \"the strategy does not belong to this vault\");\n\n        vaults[_vault] = true;\n        // adding happens while setting\n        IVault(_vault).setStrategy(_strategy);\n    }\n\n    function doHardWork(address _vault) external onlyHardWorkerOrGovernance validVault(_vault) {\n        IVault(_vault).doHardWork();\n        if (address(hardRewards) != address(0)) {\n            // rewards are an option now\n            hardRewards.rewardMe(msg.sender, _vault);\n        }\n    }\n\n    function setHardRewards(address _hardRewards) external onlyGovernance {\n        hardRewards = HardRewards(_hardRewards);\n    }\n\n    // transfers token in the controller contract to the governance\n    function salvage(address _token, uint256 _amount) external onlyGovernance {\n        IERC20(_token).safeTransfer(governance(), _amount);\n    }\n\n    function salvageStrategy(address _strategy, address _token, uint256 _amount) external onlyGovernance {\n        // the strategy is responsible for maintaining the list of\n        // salvagable tokens, to make sure that governance cannot come\n        // in and take away the coins\n        IStrategy(_strategy).salvage(governance(), _token, _amount);\n    }\n\n    function notifyFee(address underlying, uint256 fee) external {\n      if (fee > 0) {\n        IERC20(underlying).safeTransferFrom(msg.sender, address(this), fee);\n        IERC20(underlying).safeApprove(feeRewardForwarder, 0);\n        IERC20(underlying).safeApprove(feeRewardForwarder, fee);\n        FeeRewardForwarder(feeRewardForwarder).poolNotifyFixedTarget(underlying, fee);\n      }\n    }\n}\n",
  "sourcePath": "/Users/theo/projects/harvest/contracts/Controller.sol",
  "compiler": {
    "name": "solc",
    "version": "0.5.16+commit.9c3226ce.Emscripten.clang"
  },
  "schemaVersion": "3.2.0",
  "updatedAt": "2020-08-26T21:20:43.478Z",
  "networkType": "ethereum",
  "devdoc": {
    "methods": {}
  },
  "userdoc": {
    "methods": {}
  }
}