{
  "contractName": "CRVStrategyYCRVMainnet",
  "abi": [
    {
      "inputs": [
        {
          "internalType": "address",
          "name": "_storage",
          "type": "address"
        },
        {
          "internalType": "address",
          "name": "_vault",
          "type": "address"
        }
      ],
      "payable": false,
      "stateMutability": "nonpayable",
      "type": "constructor"
    },
    {
      "anonymous": false,
      "inputs": [
        {
          "indexed": false,
          "internalType": "uint256",
          "name": "amount",
          "type": "uint256"
        }
      ],
      "name": "Liquidating",
      "type": "event"
    },
    {
      "constant": true,
      "inputs": [],
      "name": "controller",
      "outputs": [
        {
          "internalType": "address",
          "name": "",
          "type": "address"
        }
      ],
      "payable": false,
      "stateMutability": "view",
      "type": "function"
    },
    {
      "constant": true,
      "inputs": [],
      "name": "crv",
      "outputs": [
        {
          "internalType": "address",
          "name": "",
          "type": "address"
        }
      ],
      "payable": false,
      "stateMutability": "view",
      "type": "function"
    },
    {
      "constant": true,
      "inputs": [],
      "name": "curve",
      "outputs": [
        {
          "internalType": "address",
          "name": "",
          "type": "address"
        }
      ],
      "payable": false,
      "stateMutability": "view",
      "type": "function"
    },
    {
      "constant": true,
      "inputs": [],
      "name": "dai",
      "outputs": [
        {
          "internalType": "address",
          "name": "",
          "type": "address"
        }
      ],
      "payable": false,
      "stateMutability": "view",
      "type": "function"
    },
    {
      "constant": false,
      "inputs": [],
      "name": "doHardWork",
      "outputs": [],
      "payable": false,
      "stateMutability": "nonpayable",
      "type": "function"
    },
    {
      "constant": true,
      "inputs": [],
      "name": "governance",
      "outputs": [
        {
          "internalType": "address",
          "name": "",
          "type": "address"
        }
      ],
      "payable": false,
      "stateMutability": "view",
      "type": "function"
    },
    {
      "constant": false,
      "inputs": [],
      "name": "investAllUnderlying",
      "outputs": [],
      "payable": false,
      "stateMutability": "nonpayable",
      "type": "function"
    },
    {
      "constant": true,
      "inputs": [],
      "name": "investedUnderlyingBalance",
      "outputs": [
        {
          "internalType": "uint256",
          "name": "",
          "type": "uint256"
        }
      ],
      "payable": false,
      "stateMutability": "view",
      "type": "function"
    },
    {
      "constant": true,
      "inputs": [],
      "name": "mintr",
      "outputs": [
        {
          "internalType": "address",
          "name": "",
          "type": "address"
        }
      ],
      "payable": false,
      "stateMutability": "view",
      "type": "function"
    },
    {
      "constant": true,
      "inputs": [],
      "name": "pool",
      "outputs": [
        {
          "internalType": "address",
          "name": "",
          "type": "address"
        }
      ],
      "payable": false,
      "stateMutability": "view",
      "type": "function"
    },
    {
      "constant": true,
      "inputs": [],
      "name": "profitSharingDenominator",
      "outputs": [
        {
          "internalType": "uint256",
          "name": "",
          "type": "uint256"
        }
      ],
      "payable": false,
      "stateMutability": "view",
      "type": "function"
    },
    {
      "constant": true,
      "inputs": [],
      "name": "profitSharingNumerator",
      "outputs": [
        {
          "internalType": "uint256",
          "name": "",
          "type": "uint256"
        }
      ],
      "payable": false,
      "stateMutability": "view",
      "type": "function"
    },
    {
      "constant": false,
      "inputs": [
        {
          "internalType": "address",
          "name": "recipient",
          "type": "address"
        },
        {
          "internalType": "address",
          "name": "token",
          "type": "address"
        },
        {
          "internalType": "uint256",
          "name": "amount",
          "type": "uint256"
        }
      ],
      "name": "salvage",
      "outputs": [],
      "payable": false,
      "stateMutability": "nonpayable",
      "type": "function"
    },
    {
      "constant": false,
      "inputs": [
        {
          "internalType": "address",
          "name": "_store",
          "type": "address"
        }
      ],
      "name": "setStorage",
      "outputs": [],
      "payable": false,
      "stateMutability": "nonpayable",
      "type": "function"
    },
    {
      "constant": true,
      "inputs": [],
      "name": "store",
      "outputs": [
        {
          "internalType": "contract Storage",
          "name": "",
          "type": "address"
        }
      ],
      "payable": false,
      "stateMutability": "view",
      "type": "function"
    },
    {
      "constant": true,
      "inputs": [],
      "name": "underlying",
      "outputs": [
        {
          "internalType": "address",
          "name": "",
          "type": "address"
        }
      ],
      "payable": false,
      "stateMutability": "view",
      "type": "function"
    },
    {
      "constant": true,
      "inputs": [],
      "name": "uni",
      "outputs": [
        {
          "internalType": "address",
          "name": "",
          "type": "address"
        }
      ],
      "payable": false,
      "stateMutability": "view",
      "type": "function"
    },
    {
      "constant": true,
      "inputs": [
        {
          "internalType": "uint256",
          "name": "",
          "type": "uint256"
        }
      ],
      "name": "uniswap_CRV2DAI",
      "outputs": [
        {
          "internalType": "address",
          "name": "",
          "type": "address"
        }
      ],
      "payable": false,
      "stateMutability": "view",
      "type": "function"
    },
    {
      "constant": true,
      "inputs": [
        {
          "internalType": "address",
          "name": "",
          "type": "address"
        }
      ],
      "name": "unsalvagableTokens",
      "outputs": [
        {
          "internalType": "bool",
          "name": "",
          "type": "bool"
        }
      ],
      "payable": false,
      "stateMutability": "view",
      "type": "function"
    },
    {
      "constant": true,
      "inputs": [],
      "name": "vault",
      "outputs": [
        {
          "internalType": "address",
          "name": "",
          "type": "address"
        }
      ],
      "payable": false,
      "stateMutability": "view",
      "type": "function"
    },
    {
      "constant": true,
      "inputs": [],
      "name": "weth",
      "outputs": [
        {
          "internalType": "address",
          "name": "",
          "type": "address"
        }
      ],
      "payable": false,
      "stateMutability": "view",
      "type": "function"
    },
    {
      "constant": false,
      "inputs": [],
      "name": "withdrawAllToVault",
      "outputs": [],
      "payable": false,
      "stateMutability": "nonpayable",
      "type": "function"
    },
    {
      "constant": false,
      "inputs": [
        {
          "internalType": "uint256",
          "name": "amountUnderlying",
          "type": "uint256"
        }
      ],
      "name": "withdrawToVault",
      "outputs": [],
      "payable": false,
      "stateMutability": "nonpayable",
      "type": "function"
    },
    {
      "constant": false,
      "inputs": [],
      "name": "yCurveFromDai",
      "outputs": [],
      "payable": false,
      "stateMutability": "nonpayable",
      "type": "function"
    },
    {
      "constant": true,
      "inputs": [],
      "name": "yDai",
      "outputs": [
        {
          "internalType": "address",
          "name": "",
          "type": "address"
        }
      ],
      "payable": false,
      "stateMutability": "view",
      "type": "function"
    }
  ],
  "bytecode": "0x6080604052600c80546001600160a01b031916737a250d5630b4cf539739df2c5dacb4c659f2488d179055600019600f553480156200003d57600080fd5b506040516200224638038062002246833981810160405260408110156200006357600080fd5b508051602090910151818173df5e0e81dff6faf3a7e52ba697820c5e32d806a873fa712ee4788c042e2b7bb55e6cb8ec569c4530c173d061d61a4d941c39e5453435b6345dc261c2fce073d533a949740bb3306d119cc777fa900ba034cd527345f783cce6b7ff23b2ab2d70e416cdb7d6055f5173c02aaa39b223fe8d0a0e5c4f27ead9083c756cc2736b175474e89094c44da98b954eedeac495271d0f7316de59092dae5ccf4a1e6439d611fd0653f0bd01737a250d5630b4cf539739df2c5dacb4c659f2488d8a8381806001600160a01b0381166200018b576040805162461bcd60e51b815260206004820152601e60248201527f6e65772073746f726167652073686f756c646e277420626520656d7074790000604482015290519081900360640190fd5b600080546001600160a01b03199081166001600160a01b03938416179091556003805490911691841691909117905550620001c5620004e6565b6001600160a01b031663b60f151a6040518163ffffffff1660e01b815260040160206040518083038186803b158015620001fe57600080fd5b505afa15801562000213573d6000803e3d6000fd5b505050506040513d60208110156200022a57600080fd5b5051600155620002426001600160e01b03620004e616565b6001600160a01b031663026a0dd06040518163ffffffff1660e01b815260040160206040518083038186803b1580156200027b57600080fd5b505afa15801562000290573d6000803e3d6000fd5b505050506040513d6020811015620002a757600080fd5b505160028190556001541062000304576040805162461bcd60e51b815260206004820152601460248201527f696e76616c69642070726f666974207368617265000000000000000000000000604482015290519081900360640190fd5b5050886001600160a01b03168a6001600160a01b0316636f307dc36040518163ffffffff1660e01b815260040160206040518083038186803b1580156200034a57600080fd5b505afa1580156200035f573d6000803e3d6000fd5b505050506040513d60208110156200037657600080fd5b50516001600160a01b031614620003d4576040805162461bcd60e51b815260206004820152601b60248201527f7661756c7420646f6573206e6f7420737570706f727420794352560000000000604482015290519081900360640190fd5b600e80546001600160a01b03199081166001600160a01b038d8116919091179092556004805483166000908152600d60209081526040808320805460ff19908116600190811790925560078054891686529483902080549091169091179055835485168f8716179093556005805485168e87161790556006805485168d8716179055815484168b861617918290556008805485168b87161790556009805485168a87161790819055600a805486168a88161790819055600b805487168a8916179055600c805490961688881617909555835160608101855292861683528516908201529190921691810191909152620004d29060109060036200056a565b5050505050505050505050505050620005fb565b60008060009054906101000a90046001600160a01b03166001600160a01b031663f77c47916040518163ffffffff1660e01b815260040160206040518083038186803b1580156200053657600080fd5b505afa1580156200054b573d6000803e3d6000fd5b505050506040513d60208110156200056257600080fd5b505190505b90565b828054828255906000526020600020908101928215620005c2579160200282015b82811115620005c257825182546001600160a01b0319166001600160a01b039091161782556020909201916001909101906200058b565b50620005d0929150620005d4565b5090565b6200056791905b80821115620005d05780546001600160a01b0319168155600101620005db565b611c3b806200060b6000396000f3fe608060405234801561001057600080fd5b50600436106101635760003560e01c80639137c1a7116100ce578063ce8c42e811610087578063ce8c42e8146102a6578063d1e61dcb146102c3578063edc9af95146102cb578063f1af3af4146102d3578063f4b9fa75146102f0578063f77c4791146102f8578063fbfa77cf1461030057610163565b80639137c1a714610258578063975057e71461027e578063aef52e3f14610286578063b60f151a1461028e578063bfd131f114610296578063c594df751461029e57610163565b80634fa5d854116101205780634fa5d854146101f657806350185946146101fe5780635aa6e675146102385780636a4874a1146102405780636f307dc3146102485780637165485d1461025057610163565b8063026a0dd0146101685780631113ef521461018257806316f0115b146101ba5780633fc8cef3146101de57806345d01e4a146101e65780634a8cfa69146101ee575b600080fd5b610170610308565b60408051918252519081900360200190f35b6101b86004803603606081101561019857600080fd5b506001600160a01b0381358116916020810135909116906040013561030e565b005b6101c261043e565b604080516001600160a01b039092168252519081900360200190f35b6101c261044d565b61017061045c565b6101b8610562565b6101b8610695565b6102246004803603602081101561021457600080fd5b50356001600160a01b0316610713565b604080519115158252519081900360200190f35b6101c2610728565b6101c26107a8565b6101c26107b7565b6101c26107c6565b6101b86004803603602081101561026e57600080fd5b50356001600160a01b03166107d5565b6101c261090b565b6101c261091a565b610170610929565b6101b861092f565b6101b8610a4f565b6101b8600480360360208110156102bc57600080fd5b5035610cf6565b6101c2610e9d565b6101c2610eac565b6101c2600480360360208110156102e957600080fd5b5035610ebb565b6101c2610ee2565b6101c2610ef1565b6101c2610f40565b60025481565b600054604080516337b87c3960e21b815233600482015290516001600160a01b039092169163dee1f0e491602480820192602092909190829003018186803b15801561035957600080fd5b505afa15801561036d573d6000803e3d6000fd5b505050506040513d602081101561038357600080fd5b50516103c7576040805162461bcd60e51b815260206004820152600e60248201526d4e6f7420676f7665726e616e636560901b604482015290519081900360640190fd5b6001600160a01b0382166000908152600d602052604090205460ff161561041f5760405162461bcd60e51b8152600401808060200182810382526023815260200180611b636023913960400191505060405180910390fd5b6104396001600160a01b038316848363ffffffff610f4f16565b505050565b6005546001600160a01b031681565b6009546001600160a01b031681565b60048054604080516370a0823160e01b815230938101939093525160009261055d926001600160a01b0316916370a0823191602480820192602092909190829003018186803b1580156104ae57600080fd5b505afa1580156104c2573d6000803e3d6000fd5b505050506040513d60208110156104d857600080fd5b5051600554604080516370a0823160e01b815230600482015290516001600160a01b03909216916370a0823191602480820192602092909190829003018186803b15801561052557600080fd5b505afa158015610539573d6000803e3d6000fd5b505050506040513d602081101561054f57600080fd5b50519063ffffffff610fa116565b905090565b60048054604080516370a0823160e01b81523093810193909352516000926001600160a01b03909216916370a08231916024808301926020929190829003018186803b1580156105b157600080fd5b505afa1580156105c5573d6000803e3d6000fd5b505050506040513d60208110156105db57600080fd5b50519050801561069257600554600454610609916001600160a01b039182169116600063ffffffff61100416565b60055460045461062c916001600160a01b0391821691168363ffffffff61100416565b6005546040805163b6b55f2560e01b81526004810184905290516001600160a01b039092169163b6b55f259160248082019260009290919082900301818387803b15801561067957600080fd5b505af115801561068d573d6000803e3d6000fd5b505050505b50565b600e546001600160a01b03163314806106c657506106b1610ef1565b6001600160a01b0316336001600160a01b0316145b6107015760405162461bcd60e51b815260040180806020018281038252602c815260200180611b37602c913960400191505060405180910390fd5b610709611117565b610711610562565b565b600d6020526000908152604090205460ff1681565b60008060009054906101000a90046001600160a01b03166001600160a01b0316635aa6e6756040518163ffffffff1660e01b815260040160206040518083038186803b15801561077757600080fd5b505afa15801561078b573d6000803e3d6000fd5b505050506040513d60208110156107a157600080fd5b5051905090565b6007546001600160a01b031681565b6004546001600160a01b031681565b6008546001600160a01b031681565b600054604080516337b87c3960e21b815233600482015290516001600160a01b039092169163dee1f0e491602480820192602092909190829003018186803b15801561082057600080fd5b505afa158015610834573d6000803e3d6000fd5b505050506040513d602081101561084a57600080fd5b505161088e576040805162461bcd60e51b815260206004820152600e60248201526d4e6f7420676f7665726e616e636560901b604482015290519081900360640190fd5b6001600160a01b0381166108e9576040805162461bcd60e51b815260206004820152601e60248201527f6e65772073746f726167652073686f756c646e277420626520656d7074790000604482015290519081900360640190fd5b600080546001600160a01b0319166001600160a01b0392909216919091179055565b6000546001600160a01b031681565b600b546001600160a01b031681565b60015481565b600e546001600160a01b0316331480610960575061094b610ef1565b6001600160a01b0316336001600160a01b0316145b61099b5760405162461bcd60e51b815260040180806020018281038252602c815260200180611b37602c913960400191505060405180910390fd5b6109a3611117565b6109ae600f546115a8565b60048054604080516370a0823160e01b81523093810193909352516000926001600160a01b03909216916370a08231916024808301926020929190829003018186803b1580156109fd57600080fd5b505afa158015610a11573d6000803e3d6000fd5b505050506040513d6020811015610a2757600080fd5b5051600e54600454919250610692916001600160a01b0390811691168363ffffffff610f4f16565b600a54604080516370a0823160e01b815230600482015290516000926001600160a01b0316916370a08231916024808301926020929190829003018186803b158015610a9a57600080fd5b505afa158015610aae573d6000803e3d6000fd5b505050506040513d6020811015610ac457600080fd5b505190508015610b7b57600b54600a54610af2916001600160a01b039182169116600063ffffffff61100416565b600b54600a54610b15916001600160a01b0391821691168363ffffffff61100416565b600b546040805163b6b55f2560e01b81526004810184905290516001600160a01b039092169163b6b55f259160248082019260009290919082900301818387803b158015610b6257600080fd5b505af1158015610b76573d6000803e3d6000fd5b505050505b600b54604080516370a0823160e01b815230600482015290516000926001600160a01b0316916370a08231916024808301926020929190829003018186803b158015610bc657600080fd5b505afa158015610bda573d6000803e3d6000fd5b505050506040513d6020811015610bf057600080fd5b505190508015610cf257600854600b54610c1e916001600160a01b039182169116600063ffffffff61100416565b600854600b54610c41916001600160a01b0391821691168363ffffffff61100416565b600854604080516080808201835284825260006020830181905282840181905260608301819052925162a6cbcd60e21b815292936001600160a01b03169263029b2f34929185916004019081908490808383875b83811015610cad578181015183820152602001610c95565b5050505090500182815260200192505050600060405180830381600087803b158015610cd857600080fd5b505af1158015610cec573d6000803e3d6000fd5b50505050505b5050565b600e546001600160a01b0316331480610d275750610d12610ef1565b6001600160a01b0316336001600160a01b0316145b610d625760405162461bcd60e51b815260040180806020018281038252602c815260200180611b37602c913960400191505060405180910390fd5b610d6b816115a8565b60048054604080516370a0823160e01b815230938101939093525183926001600160a01b03909216916370a08231916024808301926020929190829003018186803b158015610db957600080fd5b505afa158015610dcd573d6000803e3d6000fd5b505050506040513d6020811015610de357600080fd5b50511015610df357610df3611117565b60048054604080516370a0823160e01b8152309381019390935251600092610e77926001600160a01b0316916370a0823191602480820192602092909190829003018186803b158015610e4557600080fd5b505afa158015610e59573d6000803e3d6000fd5b505050506040513d6020811015610e6f57600080fd5b505183611666565b600e54600454919250610cf2916001600160a01b0390811691168363ffffffff610f4f16565b6006546001600160a01b031681565b600c546001600160a01b031681565b60108181548110610ec857fe5b6000918252602090912001546001600160a01b0316905081565b600a546001600160a01b031681565b60008060009054906101000a90046001600160a01b03166001600160a01b031663f77c47916040518163ffffffff1660e01b815260040160206040518083038186803b15801561077757600080fd5b600e546001600160a01b031681565b604080516001600160a01b038416602482015260448082018490528251808303909101815260649091019091526020810180516001600160e01b031663a9059cbb60e01b17905261043990849061167c565b600082820183811015610ffb576040805162461bcd60e51b815260206004820152601b60248201527f536166654d6174683a206164646974696f6e206f766572666c6f770000000000604482015290519081900360640190fd5b90505b92915050565b80158061108a575060408051636eb1769f60e11b81523060048201526001600160a01b03848116602483015291519185169163dd62ed3e91604480820192602092909190829003018186803b15801561105c57600080fd5b505afa158015611070573d6000803e3d6000fd5b505050506040513d602081101561108657600080fd5b5051155b6110c55760405162461bcd60e51b8152600401808060200182810382526036815260200180611bd16036913960400191505060405180910390fd5b604080516001600160a01b038416602482015260448082018490528251808303909101815260649091019091526020810180516001600160e01b031663095ea7b360e01b17905261043990849061167c565b600654600554604080516335313c2160e11b81526001600160a01b03928316600482015290519190921691636a62784291602480830192600092919082900301818387803b15801561116857600080fd5b505af115801561117c573d6000803e3d6000fd5b5050600754604080516370a0823160e01b81523060048201529051600094506001600160a01b0390921692506370a08231916024808301926020929190829003018186803b1580156111cd57600080fd5b505afa1580156111e1573d6000803e3d6000fd5b505050506040513d60208110156111f757600080fd5b50516040805182815290519192507f875c79c14f0ec82c9ae01b82cfab0d1c5c4079f1500682832fb877a7dec614fb919081900360200190a1801561069257600a54604080516370a0823160e01b815230600482015290516000926001600160a01b0316916370a08231916024808301926020929190829003018186803b15801561128157600080fd5b505afa158015611295573d6000803e3d6000fd5b505050506040513d60208110156112ab57600080fd5b5051600c546007549192506112d4916001600160a01b039081169116600063ffffffff61100416565b600c546007546112f7916001600160a01b0391821691168463ffffffff61100416565b600c546040516338ed173960e01b8152600481018481526001602483018190523060648401819052426084850181905260a0604486019081526010805460a4880181905294976001600160a01b0316966338ed1739968b968a9693959394919260c401908690801561139257602002820191906000526020600020905b81546001600160a01b03168152600190910190602001808311611374575b50509650505050505050600060405180830381600087803b1580156113b657600080fd5b505af11580156113ca573d6000803e3d6000fd5b505050506040513d6000823e601f3d908101601f1916820160405260208110156113f357600080fd5b810190808051604051939291908464010000000082111561141357600080fd5b90830190602082018581111561142857600080fd5b825186602082028301116401000000008211171561144557600080fd5b82525081516020918201928201910280838360005b8381101561147257818101518382015260200161145a565b50505050919091016040818152600a546370a0823160e01b83523060048401529051600097506001600160a01b0390911695506370a08231945060248083019450602093509091829003018186803b1580156114cd57600080fd5b505afa1580156114e1573d6000803e3d6000fd5b505050506040513d60208110156114f757600080fd5b505190508281111561151d5761151b611516828563ffffffff61183416565b611876565b505b600a54604080516370a0823160e01b815230600482015290516000926001600160a01b0316916370a08231916024808301926020929190829003018186803b15801561156857600080fd5b505afa15801561157c573d6000803e3d6000fd5b505050506040513d602081101561159257600080fd5b505111156115a2576115a2610a4f565b50505050565b600554604080516370a0823160e01b815230600482015290516001600160a01b0390921691632e1a7d4d916116309184916370a08231916024808301926020929190829003018186803b1580156115fe57600080fd5b505afa158015611612573d6000803e3d6000fd5b505050506040513d602081101561162857600080fd5b505184611666565b6040518263ffffffff1660e01b815260040180828152602001915050600060405180830381600087803b15801561067957600080fd5b60008183106116755781610ffb565b5090919050565b61168e826001600160a01b0316611968565b6116df576040805162461bcd60e51b815260206004820152601f60248201527f5361666545524332303a2063616c6c20746f206e6f6e2d636f6e747261637400604482015290519081900360640190fd5b60006060836001600160a01b0316836040518082805190602001908083835b6020831061171d5780518252601f1990920191602091820191016116fe565b6001836020036101000a0380198251168184511680821785525050505050509050019150506000604051808303816000865af19150503d806000811461177f576040519150601f19603f3d011682016040523d82523d6000602084013e611784565b606091505b5091509150816117db576040805162461bcd60e51b815260206004820181905260248201527f5361666545524332303a206c6f772d6c6576656c2063616c6c206661696c6564604482015290519081900360640190fd5b8051156115a2578080602001905160208110156117f757600080fd5b50516115a25760405162461bcd60e51b815260040180806020018281038252602a815260200180611ba7602a913960400191505060405180910390fd5b6000610ffb83836040518060400160405280601e81526020017f536166654d6174683a207375627472616374696f6e206f766572666c6f7700008152506119a4565b6000806118a060025461189460015486611a3b90919063ffffffff16565b9063ffffffff611a9416565b90506118c76118ad610ef1565b6003546001600160a01b031690600063ffffffff61100416565b6118eb6118d2610ef1565b6003546001600160a01b0316908363ffffffff61100416565b6118f3610ef1565b60035460408051631ee0d7e560e31b81526001600160a01b039283166004820152602481018590529051929091169163f706bf289160448082019260009290919082900301818387803b15801561194957600080fd5b505af115801561195d573d6000803e3d6000fd5b509295945050505050565b6000813f7fc5d2460186f7233c927e7db2dcc703c0e500b653ca82273b7bfad8045d85a47081811480159061199c57508115155b949350505050565b60008184841115611a335760405162461bcd60e51b81526004018080602001828103825283818151815260200191508051906020019080838360005b838110156119f85781810151838201526020016119e0565b50505050905090810190601f168015611a255780820380516001836020036101000a031916815260200191505b509250505060405180910390fd5b505050900390565b600082611a4a57506000610ffe565b82820282848281611a5757fe5b0414610ffb5760405162461bcd60e51b8152600401808060200182810382526021815260200180611b866021913960400191505060405180910390fd5b6000610ffb83836040518060400160405280601a81526020017f536166654d6174683a206469766973696f6e206279207a65726f00000000000081525060008183611b205760405162461bcd60e51b81526020600482018181528351602484015283519092839260449091019190850190808383600083156119f85781810151838201526020016119e0565b506000838581611b2c57fe5b049594505050505056fe5468652073656e6465722068617320746f2062652074686520636f6e74726f6c6c6572206f72207661756c74746f6b656e20697320646566696e6564206173206e6f742073616c7661676561626c65536166654d6174683a206d756c7469706c69636174696f6e206f766572666c6f775361666545524332303a204552433230206f7065726174696f6e20646964206e6f7420737563636565645361666545524332303a20617070726f76652066726f6d206e6f6e2d7a65726f20746f206e6f6e2d7a65726f20616c6c6f77616e6365a265627a7a723158204f2cfc9fdf7448dcad406cf44147d3f433fd0507cf145f84428e88fc6c6e12cd64736f6c63430005100032",
  "source": "pragma solidity 0.5.16;\n\nimport \"./CRVStrategyYCRV.sol\";\n\n\n/**\n* This strategy is for the yCRV vault, i.e., the underlying token is yCRV. It is not to accept\n* stable coins. It will farm the CRV crop. For liquidation, it swaps CRV into DAI and uses DAI\n* to produce yCRV.\n*/\ncontract CRVStrategyYCRVMainnet is CRVStrategyYCRV {\n\n  constructor(\n    address _storage,\n    address _vault\n  ) CRVStrategyYCRV(\n    _storage,\n    _vault,\n    address(0xdF5e0e81Dff6FAF3A7e52BA697820c5e32D806A8), // yCRV underlying\n    address(0xFA712EE4788C042e2B7BB55E6cb8ec569C4530c1), // _gauge\n    address(0xd061D61a4d941c39E5453435B6345Dc261C2fcE0), // _mintr\n    address(0xD533a949740bb3306d119CC777fa900bA034cd52), // _crv\n    address(0x45F783CCE6B7FF23B2ab2D70e416cdb7D6055f51), // _curve\n    address(0xC02aaA39b223FE8D0A0e5C4F27eAD9083C756Cc2), // _weth\n    address(0x6B175474E89094C44Da98b954EedeAC495271d0F), // _dai\n    address(0x16de59092dAE5CcF4A1E6439D611fd0653f0Bd01), // _yDai\n    address(0x7a250d5630B4cF539739dF2C5dAcb4c659F2488D) // _uniswap\n  ) public {\n  }\n}\n",
  "sourcePath": "/Users/theo/projects/harvest/contracts/strategies/curve/CRVStrategyYCRVMainnet.sol",
  "compiler": {
    "name": "solc",
    "version": "0.5.16+commit.9c3226ce.Emscripten.clang"
  },
  "schemaVersion": "3.2.0",
  "updatedAt": "2020-08-26T20:17:26.526Z",
  "networkType": "ethereum",
  "devdoc": {
    "methods": {}
  },
  "userdoc": {
    "methods": {
      "doHardWork()": {
        "notice": "Claims and liquidates CRV into yCRV, and then invests all underlying."
      },
      "investAllUnderlying()": {
        "notice": "Invests all the underlying yCRV into the pool that mints crops (CRV_."
      },
      "investedUnderlyingBalance()": {
        "notice": "Claims and liquidates CRV into yCRV, and then invests all underlying."
      },
      "salvage(address,address,uint256)": {
        "notice": "Salvages a token. We should not be able to salvage CRV and yCRV (underlying)."
      },
      "withdrawAllToVault()": {
        "notice": "Withdraws all the yCRV tokens to the pool."
      },
      "withdrawToVault(uint256)": {
        "notice": "Withdraws the yCRV tokens to the pool in the specified amount."
      },
      "yCurveFromDai()": {
        "notice": "Converts all DAI to yCRV using the CRV protocol."
      }
    },
    "notice": "This strategy is for the yCRV vault, i.e., the underlying token is yCRV. It is not to accept stable coins. It will farm the CRV crop. For liquidation, it swaps CRV into DAI and uses DAI to produce yCRV."
  }
}