{
  "contractName": "CRVStrategyStableMainnet",
  "abi": [
    {
      "inputs": [
        {
          "internalType": "address",
          "name": "_storage",
          "type": "address"
        },
        {
          "internalType": "address",
          "name": "_underlying",
          "type": "address"
        },
        {
          "internalType": "address",
          "name": "_vault",
          "type": "address"
        },
        {
          "internalType": "address",
          "name": "_ycrvVault",
          "type": "address"
        }
      ],
      "payable": false,
      "stateMutability": "nonpayable",
      "type": "constructor"
    },
    {
      "constant": true,
      "inputs": [],
      "name": "__curve",
      "outputs": [
        {
          "internalType": "address",
          "name": "",
          "type": "address"
        }
      ],
      "payable": false,
      "stateMutability": "view",
      "type": "function"
    },
    {
      "constant": true,
      "inputs": [],
      "name": "__ycrv",
      "outputs": [
        {
          "internalType": "address",
          "name": "",
          "type": "address"
        }
      ],
      "payable": false,
      "stateMutability": "view",
      "type": "function"
    },
    {
      "constant": true,
      "inputs": [],
      "name": "controller",
      "outputs": [
        {
          "internalType": "address",
          "name": "",
          "type": "address"
        }
      ],
      "payable": false,
      "stateMutability": "view",
      "type": "function"
    },
    {
      "constant": true,
      "inputs": [],
      "name": "convertor",
      "outputs": [
        {
          "internalType": "address",
          "name": "",
          "type": "address"
        }
      ],
      "payable": false,
      "stateMutability": "view",
      "type": "function"
    },
    {
      "constant": true,
      "inputs": [],
      "name": "curve",
      "outputs": [
        {
          "internalType": "address",
          "name": "",
          "type": "address"
        }
      ],
      "payable": false,
      "stateMutability": "view",
      "type": "function"
    },
    {
      "constant": true,
      "inputs": [],
      "name": "dai",
      "outputs": [
        {
          "internalType": "address",
          "name": "",
          "type": "address"
        }
      ],
      "payable": false,
      "stateMutability": "view",
      "type": "function"
    },
    {
      "constant": false,
      "inputs": [],
      "name": "doHardWork",
      "outputs": [],
      "payable": false,
      "stateMutability": "nonpayable",
      "type": "function"
    },
    {
      "constant": true,
      "inputs": [],
      "name": "governance",
      "outputs": [
        {
          "internalType": "address",
          "name": "",
          "type": "address"
        }
      ],
      "payable": false,
      "stateMutability": "view",
      "type": "function"
    },
    {
      "constant": true,
      "inputs": [],
      "name": "investedUnderlyingBalance",
      "outputs": [
        {
          "internalType": "uint256",
          "name": "",
          "type": "uint256"
        }
      ],
      "payable": false,
      "stateMutability": "view",
      "type": "function"
    },
    {
      "constant": false,
      "inputs": [
        {
          "internalType": "address",
          "name": "recipient",
          "type": "address"
        },
        {
          "internalType": "address",
          "name": "token",
          "type": "address"
        },
        {
          "internalType": "uint256",
          "name": "amount",
          "type": "uint256"
        }
      ],
      "name": "salvage",
      "outputs": [],
      "payable": false,
      "stateMutability": "nonpayable",
      "type": "function"
    },
    {
      "constant": false,
      "inputs": [
        {
          "internalType": "address",
          "name": "_convertor",
          "type": "address"
        }
      ],
      "name": "setConvertor",
      "outputs": [],
      "payable": false,
      "stateMutability": "nonpayable",
      "type": "function"
    },
    {
      "constant": false,
      "inputs": [
        {
          "internalType": "address",
          "name": "_store",
          "type": "address"
        }
      ],
      "name": "setStorage",
      "outputs": [],
      "payable": false,
      "stateMutability": "nonpayable",
      "type": "function"
    },
    {
      "constant": true,
      "inputs": [],
      "name": "store",
      "outputs": [
        {
          "internalType": "contract Storage",
          "name": "",
          "type": "address"
        }
      ],
      "payable": false,
      "stateMutability": "view",
      "type": "function"
    },
    {
      "constant": true,
      "inputs": [],
      "name": "underlying",
      "outputs": [
        {
          "internalType": "address",
          "name": "",
          "type": "address"
        }
      ],
      "payable": false,
      "stateMutability": "view",
      "type": "function"
    },
    {
      "constant": true,
      "inputs": [
        {
          "internalType": "uint256",
          "name": "ycrvBalance",
          "type": "uint256"
        }
      ],
      "name": "underlyingValueFromYCrv",
      "outputs": [
        {
          "internalType": "uint256",
          "name": "",
          "type": "uint256"
        }
      ],
      "payable": false,
      "stateMutability": "view",
      "type": "function"
    },
    {
      "constant": true,
      "inputs": [
        {
          "internalType": "address",
          "name": "",
          "type": "address"
        }
      ],
      "name": "unsalvagableTokens",
      "outputs": [
        {
          "internalType": "bool",
          "name": "",
          "type": "bool"
        }
      ],
      "payable": false,
      "stateMutability": "view",
      "type": "function"
    },
    {
      "constant": true,
      "inputs": [],
      "name": "usdc",
      "outputs": [
        {
          "internalType": "address",
          "name": "",
          "type": "address"
        }
      ],
      "payable": false,
      "stateMutability": "view",
      "type": "function"
    },
    {
      "constant": true,
      "inputs": [],
      "name": "usdt",
      "outputs": [
        {
          "internalType": "address",
          "name": "",
          "type": "address"
        }
      ],
      "payable": false,
      "stateMutability": "view",
      "type": "function"
    },
    {
      "constant": true,
      "inputs": [],
      "name": "vault",
      "outputs": [
        {
          "internalType": "address",
          "name": "",
          "type": "address"
        }
      ],
      "payable": false,
      "stateMutability": "view",
      "type": "function"
    },
    {
      "constant": false,
      "inputs": [],
      "name": "withdrawAllToVault",
      "outputs": [],
      "payable": false,
      "stateMutability": "nonpayable",
      "type": "function"
    },
    {
      "constant": false,
      "inputs": [
        {
          "internalType": "uint256",
          "name": "amountUnderlying",
          "type": "uint256"
        }
      ],
      "name": "withdrawToVault",
      "outputs": [],
      "payable": false,
      "stateMutability": "nonpayable",
      "type": "function"
    },
    {
      "constant": true,
      "inputs": [
        {
          "internalType": "uint256",
          "name": "amountUnderlying",
          "type": "uint256"
        }
      ],
      "name": "yTokenValueFromUnderlying",
      "outputs": [
        {
          "internalType": "uint256",
          "name": "",
          "type": "uint256"
        }
      ],
      "payable": false,
      "stateMutability": "view",
      "type": "function"
    },
    {
      "constant": true,
      "inputs": [],
      "name": "yVault",
      "outputs": [
        {
          "internalType": "address",
          "name": "",
          "type": "address"
        }
      ],
      "payable": false,
      "stateMutability": "view",
      "type": "function"
    },
    {
      "constant": true,
      "inputs": [
        {
          "internalType": "address",
          "name": "",
          "type": "address"
        }
      ],
      "name": "yVaults",
      "outputs": [
        {
          "internalType": "address",
          "name": "",
          "type": "address"
        }
      ],
      "payable": false,
      "stateMutability": "view",
      "type": "function"
    },
    {
      "constant": true,
      "inputs": [],
      "name": "ycrv",
      "outputs": [
        {
          "internalType": "address",
          "name": "",
          "type": "address"
        }
      ],
      "payable": false,
      "stateMutability": "view",
      "type": "function"
    },
    {
      "constant": true,
      "inputs": [],
      "name": "ycrvVault",
      "outputs": [
        {
          "internalType": "address",
          "name": "",
          "type": "address"
        }
      ],
      "payable": false,
      "stateMutability": "view",
      "type": "function"
    },
    {
      "constant": true,
      "inputs": [],
      "name": "ydai",
      "outputs": [
        {
          "internalType": "address",
          "name": "",
          "type": "address"
        }
      ],
      "payable": false,
      "stateMutability": "view",
      "type": "function"
    },
    {
      "constant": true,
      "inputs": [],
      "name": "yusdc",
      "outputs": [
        {
          "internalType": "address",
          "name": "",
          "type": "address"
        }
      ],
      "payable": false,
      "stateMutability": "view",
      "type": "function"
    },
    {
      "constant": true,
      "inputs": [],
      "name": "yusdt",
      "outputs": [
        {
          "internalType": "address",
          "name": "",
          "type": "address"
        }
      ],
      "payable": false,
      "stateMutability": "view",
      "type": "function"
    }
  ],
  "bytecode": "0x60806040523480156200001157600080fd5b50604051620025e8380380620025e8833981810160405260808110156200003757600080fd5b50805160208201516040830151606090930151919290918383838360008073df5e0e81dff6faf3a7e52ba697820c5e32d806a87345f783cce6b7ff23b2ab2d70e416cdb7d6055f518288806001600160a01b038116620000de576040805162461bcd60e51b815260206004820152601e60248201527f6e65772073746f726167652073686f756c646e277420626520656d7074790000604482015290519081900360640190fd5b600080546001600160a01b03199081166001600160a01b03938416179091556002805482168b84161781556004805483168b851617905560018054909216928c169290921790558591508111156200013257fe5b6001805460ff60a01b1916600160a01b8360028111156200014f57fe5b0217905550600380546001600160a01b03199081166001600160a01b0397881617825560058054821695881695909517855560068054821694881694909417909355600780548416928716929092179091556001805486166000908152600860209081526040808320805460ff19908116861790915585548a168452818420805482168617905596548916835280832080548816851790556004548916835280832080549097168417909655600990527f97388e35ced89452e931da64e974948a16778d9661237081dcdd1e761b320eba80547316de59092dae5ccf4a1e6439d611fd0653f0bd019086161790557f1f245ac64242947e58f41e0c74da6346e52e55c3b7aaa984593ab94923e568fc805473d6ad7a6750a7593e092a9b218d66c0a814a3436e9086161790557f22019f9efa4d447e69ef453420497db6cb97f02e378c952339090a00dbce4a5980547383f798e925bcd4017eb265844fddabb448f1707d9086161790559054861681529290922054825490851691161790819055909116151594506200031993505050505760405162461bcd60e51b815260040180806020018281038252602f815260200180620025b9602f913960400191505060405180910390fd5b6001600160a01b038316736b175474e89094c44da98b954eedeac495271d0f14156200036057600180546000919060ff60a01b1916600160a01b835b02179055506200042d565b6001600160a01b03831673a0b86991c6218b36c1d19d4a2e9eb0ce3606eb4814156200039f5760018054819060ff60a01b1916600160a01b8262000355565b6001600160a01b03831673dac17f958d2ee523a2206206994597c13d831ec71415620003e057600180546002919060ff60a01b1916600160a01b8362000355565b6040805162461bcd60e51b815260206004820152601360248201527f5768617420697320746869732061737365743f00000000000000000000000000604482015290519081900360640190fd5b6040516200043b9062000484565b604051809103906000f08015801562000458573d6000803e3d6000fd5b50600780546001600160a01b0319166001600160a01b0392909216919091179055506200049292505050565b6101aa806200240f83390190565b611f6d80620004a26000396000f3fe608060405234801561001057600080fd5b506004361061019f5760003560e01c80637165485d116100f4578063bfa65d17116100a2578063f4b9fa7511610071578063f4b9fa7514610380578063f77c479114610388578063f9137fcd14610390578063fbfa77cf146103ad5761019f565b8063bfa65d171461034b578063bfd131f114610353578063ce8c42e81461035b578063dfb84f65146103785761019f565b80637165485d146102a45780638335fc21146102ac5780639137c1a7146102d257806395ed7da3146102f8578063975057e71461031e578063a950eec214610326578063b5030306146103435761019f565b80633a7087e0116101515780633a7087e0146102285780633e413bee1461023057806345d01e4a146102385780634fa5d85414610252578063501859461461025a5780635aa6e675146102945780636f307dc31461029c5761019f565b80630240c3e9146101a45780631113ef52146101c857806317e3a3d5146102005780632f48ab7d1461020857806332bd678f1461021057806333303f8e14610218578063366cd4f314610220575b600080fd5b6101ac6103b5565b604080516001600160a01b039092168252519081900360200190f35b6101fe600480360360608110156101de57600080fd5b506001600160a01b038135811691602081013590911690604001356103cd565b005b6101ac6104fd565b6101ac61050c565b6101ac610524565b6101ac61053c565b6101ac61054b565b6101ac610563565b6101ac61057b565b610240610593565b60408051918252519081900360200190f35b6101fe610752565b6102806004803603602081101561027057600080fd5b50356001600160a01b03166107c8565b604080519115158252519081900360200190f35b6101ac6107dd565b6101ac61085d565b6101ac61086c565b6101fe600480360360208110156102c257600080fd5b50356001600160a01b031661087b565b6101fe600480360360208110156102e857600080fd5b50356001600160a01b0316610956565b6101ac6004803603602081101561030e57600080fd5b50356001600160a01b0316610a8c565b6101ac610aa7565b6102406004803603602081101561033c57600080fd5b5035610ab6565b6101ac610b58565b6101ac610b67565b6101fe610b76565b6101fe6004803603602081101561037157600080fd5b5035610d73565b6101ac610f82565b6101ac610f9a565b6101ac610fb2565b610240600480360360208110156103a657600080fd5b5035611001565b6101ac611133565b7345f783cce6b7ff23b2ab2d70e416cdb7d6055f5181565b600054604080516337b87c3960e21b815233600482015290516001600160a01b039092169163dee1f0e491602480820192602092909190829003018186803b15801561041857600080fd5b505afa15801561042c573d6000803e3d6000fd5b505050506040513d602081101561044257600080fd5b5051610486576040805162461bcd60e51b815260206004820152600e60248201526d4e6f7420676f7665726e616e636560901b604482015290519081900360640190fd5b6001600160a01b03821660009081526008602052604090205460ff16156104de5760405162461bcd60e51b8152600401808060200182810382526023815260200180611e956023913960400191505060405180910390fd5b6104f86001600160a01b038316848363ffffffff61114216565b505050565b6005546001600160a01b031681565b73dac17f958d2ee523a2206206994597c13d831ec781565b73d6ad7a6750a7593e092a9b218d66c0a814a3436e81565b6003546001600160a01b031681565b7316de59092dae5ccf4a1e6439d611fd0653f0bd0181565b73df5e0e81dff6faf3a7e52ba697820c5e32d806a881565b73a0b86991c6218b36c1d19d4a2e9eb0ce3606eb4881565b60048054604080516370a0823160e01b815230938101939093525160009283926001600160a01b0316916370a0823191602480820192602092909190829003018186803b1580156105e357600080fd5b505afa1580156105f7573d6000803e3d6000fd5b505050506040513d602081101561060d57600080fd5b50516004805460408051631df1ee3f60e21b815290519394506000936001600160a01b03909216926377c7b8fc928282019260209290829003018186803b15801561065757600080fd5b505afa15801561066b573d6000803e3d6000fd5b505050506040513d602081101561068157600080fd5b50519050670de0b6b3a764000060006106b0826106a4868663ffffffff61119416565b9063ffffffff6111f616565b905060006106bd82611001565b600154604080516370a0823160e01b81523060048201529051929350610748926001600160a01b03909216916370a0823191602480820192602092909190829003018186803b15801561070f57600080fd5b505afa158015610723573d6000803e3d6000fd5b505050506040513d602081101561073957600080fd5b5051829063ffffffff61123816565b9550505050505090565b6002546001600160a01b0316331480610783575061076e610fb2565b6001600160a01b0316336001600160a01b0316145b6107be5760405162461bcd60e51b815260040180806020018281038252602c815260200180611e69602c913960400191505060405180910390fd5b6107c6611292565b565b60086020526000908152604090205460ff1681565b60008060009054906101000a90046001600160a01b03166001600160a01b0316635aa6e6756040518163ffffffff1660e01b815260040160206040518083038186803b15801561082c57600080fd5b505afa158015610840573d6000803e3d6000fd5b505050506040513d602081101561085657600080fd5b5051905090565b6001546001600160a01b031681565b6006546001600160a01b031681565b600054604080516337b87c3960e21b815233600482015290516001600160a01b039092169163dee1f0e491602480820192602092909190829003018186803b1580156108c657600080fd5b505afa1580156108da573d6000803e3d6000fd5b505050506040513d60208110156108f057600080fd5b5051610934576040805162461bcd60e51b815260206004820152600e60248201526d4e6f7420676f7665726e616e636560901b604482015290519081900360640190fd5b600780546001600160a01b0319166001600160a01b0392909216919091179055565b600054604080516337b87c3960e21b815233600482015290516001600160a01b039092169163dee1f0e491602480820192602092909190829003018186803b1580156109a157600080fd5b505afa1580156109b5573d6000803e3d6000fd5b505050506040513d60208110156109cb57600080fd5b5051610a0f576040805162461bcd60e51b815260206004820152600e60248201526d4e6f7420676f7665726e616e636560901b604482015290519081900360640190fd5b6001600160a01b038116610a6a576040805162461bcd60e51b815260206004820152601e60248201527f6e65772073746f726167652073686f756c646e277420626520656d7074790000604482015290519081900360640190fd5b600080546001600160a01b0319166001600160a01b0392909216919091179055565b6009602052600090815260409020546001600160a01b031681565b6000546001600160a01b031681565b600080600360009054906101000a90046001600160a01b03166001600160a01b03166377c7b8fc6040518163ffffffff1660e01b815260040160206040518083038186803b158015610b0757600080fd5b505afa158015610b1b573d6000803e3d6000fd5b505050506040513d6020811015610b3157600080fd5b50519050610b51670de0b6b3a76400006106a4838663ffffffff61119416565b9392505050565b6007546001600160a01b031681565b6004546001600160a01b031681565b6002546001600160a01b0316331480610ba75750610b92610fb2565b6001600160a01b0316336001600160a01b0316145b610be25760405162461bcd60e51b815260040180806020018281038252602c815260200180611e69602c913960400191505060405180910390fd5b60048054604080516370a0823160e01b81523093810193909352516000926001600160a01b03909216916370a08231916024808301926020929190829003018186803b158015610c3157600080fd5b505afa158015610c45573d6000803e3d6000fd5b505050506040513d6020811015610c5b57600080fd5b50516004805460408051632e1a7d4d60e01b8152928301849052519293506001600160a01b031691632e1a7d4d9160248082019260009290919082900301818387803b158015610caa57600080fd5b505af1158015610cbe573d6000803e3d6000fd5b50505050610ccd6000196113c7565b600154604080516370a0823160e01b815230600482015290516000926001600160a01b0316916370a08231916024808301926020929190829003018186803b158015610d1857600080fd5b505afa158015610d2c573d6000803e3d6000fd5b505050506040513d6020811015610d4257600080fd5b505190508015610d6f57600254600154610d6f916001600160a01b0391821691168363ffffffff61114216565b5050565b6002546001600160a01b0316331480610da45750610d8f610fb2565b6001600160a01b0316336001600160a01b0316145b610ddf5760405162461bcd60e51b815260040180806020018281038252602c815260200180611e69602c913960400191505060405180910390fd5b60048054604080516370a0823160e01b81523093810193909352516000926001600160a01b03909216916370a08231916024808301926020929190829003018186803b158015610e2e57600080fd5b505afa158015610e42573d6000803e3d6000fd5b505050506040513d6020811015610e5857600080fd5b50516004805460408051632e1a7d4d60e01b8152928301849052519293506001600160a01b031691632e1a7d4d9160248082019260009290919082900301818387803b158015610ea757600080fd5b505af1158015610ebb573d6000803e3d6000fd5b50505050610ec8826113c7565b600154604080516370a0823160e01b815230600482015290516000926001600160a01b0316916370a08231916024808301926020929190829003018186803b158015610f1357600080fd5b505afa158015610f27573d6000803e3d6000fd5b505050506040513d6020811015610f3d57600080fd5b505190508015610f7a57600254610f7a906001600160a01b0316610f6185846116e1565b6001546001600160a01b0316919063ffffffff61114216565b6104f8611292565b7383f798e925bcd4017eb265844fddabb448f1707d81565b736b175474e89094c44da98b954eedeac495271d0f81565b60008060009054906101000a90046001600160a01b03166001600160a01b031663f77c47916040518163ffffffff1660e01b815260040160206040518083038186803b15801561082c57600080fd5b60075460015460009182916001600160a01b03909116906303dbf9e7908590600160a01b900460ff16600281111561103557fe5b6040518363ffffffff1660e01b8152600401808381526020018281526020019250505060206040518083038186803b15801561107057600080fd5b505afa158015611084573d6000803e3d6000fd5b505050506040513d602081101561109a57600080fd5b505160035460408051631df1ee3f60e21b81529051929350670de0b6b3a76400009261112b926001600160a01b0316916377c7b8fc916004808301926020929190829003018186803b1580156110ef57600080fd5b505afa158015611103573d6000803e3d6000fd5b505050506040513d602081101561111957600080fd5b50516106a4848463ffffffff61119416565b949350505050565b6002546001600160a01b031681565b604080516001600160a01b038416602482015260448082018490528251808303909101815260649091019091526020810180516001600160e01b031663a9059cbb60e01b1790526104f89084906116f7565b6000826111a3575060006111f0565b828202828482816111b057fe5b04146111ed5760405162461bcd60e51b8152600401808060200182810382526021815260200180611eb86021913960400191505060405180910390fd5b90505b92915050565b60006111ed83836040518060400160405280601a81526020017f536166654d6174683a206469766973696f6e206279207a65726f0000000000008152506118b5565b6000828201838110156111ed576040805162461bcd60e51b815260206004820152601b60248201527f536166654d6174683a206164646974696f6e206f766572666c6f770000000000604482015290519081900360640190fd5b61129a611957565b600554604080516370a0823160e01b815230600482015290516000926001600160a01b0316916370a08231916024808301926020929190829003018186803b1580156112e557600080fd5b505afa1580156112f9573d6000803e3d6000fd5b505050506040513d602081101561130f57600080fd5b5051905080156113c45760045460055461133d916001600160a01b039182169116600063ffffffff611bf016565b600454600554611360916001600160a01b0391821691168363ffffffff611bf016565b600480546040805163b6b55f2560e01b8152928301849052516001600160a01b039091169163b6b55f2591602480830192600092919082900301818387803b1580156113ab57600080fd5b505af11580156113bf573d6000803e3d6000fd5b505050505b50565b600554604080516370a0823160e01b815230600482015290516000926001600160a01b0316916370a08231916024808301926020929190829003018186803b15801561141257600080fd5b505afa158015611426573d6000803e3d6000fd5b505050506040513d602081101561143c57600080fd5b50519050600061144b82611001565b9050806114595750506113c4565b600060001984146114725761146d84610ab6565b611474565b835b905061147e611e4a565b61149061148b84846116e1565b611d03565b600354604080516370a0823160e01b815230600482015290519293506000926001600160a01b03909216916370a0823191602480820192602092909190829003018186803b1580156114e157600080fd5b505afa1580156114f5573d6000803e3d6000fd5b505050506040513d602081101561150b57600080fd5b5051600654600554919250611534916001600160a01b039081169116600063ffffffff611bf016565b600654600554611557916001600160a01b0391821691168763ffffffff611bf016565b600654604051630c53debb60e11b81526001600160a01b03909116906318a7bd7690849088906004018083608080838360005b838110156115a257818101518382015260200161158a565b5050505090500182815260200192505050600060405180830381600087803b1580156115cd57600080fd5b505af11580156115e1573d6000803e3d6000fd5b5050600354604080516370a0823160e01b81523060048201529051600094506001600160a01b0390921692506370a08231916024808301926020929190829003018186803b15801561163257600080fd5b505afa158015611646573d6000803e3d6000fd5b505050506040513d602081101561165c57600080fd5b50519050818111156116d8576003546001600160a01b0316632e1a7d4d611689838563ffffffff611d7516565b6040518263ffffffff1660e01b815260040180828152602001915050600060405180830381600087803b1580156116bf57600080fd5b505af11580156116d3573d6000803e3d6000fd5b505050505b50505050505050565b60008183106116f057816111ed565b5090919050565b611709826001600160a01b0316611db7565b61175a576040805162461bcd60e51b815260206004820152601f60248201527f5361666545524332303a2063616c6c20746f206e6f6e2d636f6e747261637400604482015290519081900360640190fd5b60006060836001600160a01b0316836040518082805190602001908083835b602083106117985780518252601f199092019160209182019101611779565b6001836020036101000a0380198251168184511680821785525050505050509050019150506000604051808303816000865af19150503d80600081146117fa576040519150601f19603f3d011682016040523d82523d6000602084013e6117ff565b606091505b509150915081611856576040805162461bcd60e51b815260206004820181905260248201527f5361666545524332303a206c6f772d6c6576656c2063616c6c206661696c6564604482015290519081900360640190fd5b8051156118af5780806020019051602081101561187257600080fd5b50516118af5760405162461bcd60e51b815260040180806020018281038252602a815260200180611ed9602a913960400191505060405180910390fd5b50505050565b600081836119415760405162461bcd60e51b81526004018080602001828103825283818151815260200191508051906020019080838360005b838110156119065781810151838201526020016118ee565b50505050905090810190601f1680156119335780820380516001836020036101000a031916815260200191505b509250505060405180910390fd5b50600083858161194d57fe5b0495945050505050565b600154604080516370a0823160e01b815230600482015290516000926001600160a01b0316916370a08231916024808301926020929190829003018186803b1580156119a257600080fd5b505afa1580156119b6573d6000803e3d6000fd5b505050506040513d60208110156119cc57600080fd5b505190508015611a83576003546001546119fa916001600160a01b039182169116600063ffffffff611bf016565b600354600154611a1d916001600160a01b0391821691168363ffffffff611bf016565b6003546040805163b6b55f2560e01b81526004810184905290516001600160a01b039092169163b6b55f259160248082019260009290919082900301818387803b158015611a6a57600080fd5b505af1158015611a7e573d6000803e3d6000fd5b505050505b600354604080516370a0823160e01b815230600482015290516000926001600160a01b0316916370a08231916024808301926020929190829003018186803b158015611ace57600080fd5b505afa158015611ae2573d6000803e3d6000fd5b505050506040513d6020811015611af857600080fd5b505190508015610d6f57600654600354611b26916001600160a01b039182169116600063ffffffff611bf016565b600654600354611b49916001600160a01b0391821691168363ffffffff611bf016565b6000611b53611e4a565b611b5c83611d03565b60065460405162a6cbcd60e21b81529192506001600160a01b03169063029b2f3490839085906004018083608080838360005b83811015611ba7578181015183820152602001611b8f565b5050505090500182815260200192505050600060405180830381600087803b158015611bd257600080fd5b505af1158015611be6573d6000803e3d6000fd5b5050505050505050565b801580611c76575060408051636eb1769f60e11b81523060048201526001600160a01b03848116602483015291519185169163dd62ed3e91604480820192602092909190829003018186803b158015611c4857600080fd5b505afa158015611c5c573d6000803e3d6000fd5b505050506040513d6020811015611c7257600080fd5b5051155b611cb15760405162461bcd60e51b8152600401808060200182810382526036815260200180611f036036913960400191505060405180910390fd5b604080516001600160a01b038416602482015260448082018490528251808303909101815260649091019091526020810180516001600160e01b031663095ea7b360e01b1790526104f89084906116f7565b611d0b611e4a565b611d13611e4a565b6040518060800160405280600081526020016000815260200160008152602001600081525090508281600160149054906101000a900460ff166002811115611d5757fe5b66ffffffffffffff1660048110611d6a57fe5b602002015292915050565b60006111ed83836040518060400160405280601e81526020017f536166654d6174683a207375627472616374696f6e206f766572666c6f770000815250611df0565b6000813f7fc5d2460186f7233c927e7db2dcc703c0e500b653ca82273b7bfad8045d85a47081811480159061112b575050151592915050565b60008184841115611e425760405162461bcd60e51b81526020600482018181528351602484015283519092839260449091019190850190808383600083156119065781810151838201526020016118ee565b505050900390565b6040518060800160405280600490602082028038833950919291505056fe5468652073656e6465722068617320746f2062652074686520636f6e74726f6c6c6572206f72207661756c74746f6b656e20697320646566696e6564206173206e6f742073616c7661676561626c65536166654d6174683a206d756c7469706c69636174696f6e206f766572666c6f775361666545524332303a204552433230206f7065726174696f6e20646964206e6f7420737563636565645361666545524332303a20617070726f76652066726f6d206e6f6e2d7a65726f20746f206e6f6e2d7a65726f20616c6c6f77616e6365a265627a7a7231582001d2fa3919bc9b39ed7dc2749b6e8feb7264567819451ed2db6df3d7c9a87baa64736f6c634300051000326080604052600080546001600160a01b03191673bbc81d23ea2c3ec7e56d39296f0cbb648873a5d317905534801561003657600080fd5b50610164806100466000396000f3fe608060405234801561001057600080fd5b50600436106100365760003560e01c806303dbf9e71461003b578063262d615214610070575b600080fd5b61005e6004803603604081101561005157600080fd5b5080359060200135610094565b60408051918252519081900360200190f35b610078610120565b604080516001600160a01b039092168252519081900360200190f35b600080546040805163cc2b27d760e01b815260048101869052600f85810b900b602482015290516001600160a01b039092169163cc2b27d791604480820192602092909190829003018186803b1580156100ed57600080fd5b505afa158015610101573d6000803e3d6000fd5b505050506040513d602081101561011757600080fd5b50519392505050565b6000546001600160a01b03168156fea265627a7a7231582089ba9f0f89acc17ad34ed52a85a34b287bcab141db9b4ae093aab65428c063b764736f6c63430005100032756e6465726c79696e67206e6f7420737570706f727465643a20795661756c74206973206e6f7420646566696e6564",
  "source": "pragma solidity 0.5.16;\nimport \"./CRVStrategyStable.sol\";\nimport \"./PriceConvertor.sol\";\n\n/**\n* Adds the mainnet addresses to the CRVStrategyStable\n*/\ncontract CRVStrategyStableMainnet is CRVStrategyStable {\n\n  // token addresses\n  // y-addresses are taken from: https://docs.yearn.finance/yearn.finance/yearn-1\n  address constant public dai = address(0x6B175474E89094C44Da98b954EedeAC495271d0F);\n  address constant public ydai = address(0x16de59092dAE5CcF4A1E6439D611fd0653f0Bd01);\n  address constant public usdc = address(0xA0b86991c6218b36c1d19D4a2e9Eb0cE3606eB48);\n  address constant public yusdc = address(0xd6aD7a6750A7593E092a9B218d66C0A814a3436e);\n  address constant public usdt = address(0xdAC17F958D2ee523a2206206994597C13D831ec7);\n  address constant public yusdt = address(0x83f798e925BcD4017Eb265844FDDAbb448f1707D);\n\n  // pre-defined constant mapping: underlying -> y-token\n  mapping(address => address) public yVaults;\n\n  // yDAIyUSDCyUSDTyTUSD\n  address constant public __ycrv = address(0xdF5e0e81Dff6FAF3A7e52BA697820c5e32D806A8);\n\n  // protocols\n  address constant public __curve = address(0x45F783CCE6B7FF23B2ab2D70e416cdb7D6055f51);\n\n  constructor(\n    address _storage,\n    address _underlying,\n    address _vault,\n    address _ycrvVault\n  )\n  CRVStrategyStable(_storage, _underlying, _vault, _ycrvVault, address(0), 0,\n    __ycrv,\n    __curve,\n    address(0)\n  )\n  public {\n    yVaults[dai] = ydai;\n    yVaults[usdc] = yusdc;\n    yVaults[usdt] = yusdt;\n    yVault = yVaults[underlying];\n    require(yVault != address(0), \"underlying not supported: yVault is not defined\");\n    if (_underlying == dai) {\n      tokenIndex = TokenIndex.DAI;\n    } else if (_underlying == usdc) {\n      tokenIndex = TokenIndex.USDC;\n    } else if (_underlying == usdt) {\n      tokenIndex = TokenIndex.USDT;\n    } else {\n      revert(\"What is this asset?\");\n    }\n    convertor = address(new PriceConvertor());\n  }\n}\n",
  "sourcePath": "/Users/theo/projects/harvest/contracts/strategies/curve/CRVStrategyStableMainnet.sol",
  "compiler": {
    "name": "solc",
    "version": "0.5.16+commit.9c3226ce.Emscripten.clang"
  },
  "schemaVersion": "3.2.0",
  "updatedAt": "2020-08-26T20:17:26.524Z",
  "networkType": "ethereum",
  "devdoc": {
    "methods": {}
  },
  "userdoc": {
    "methods": {
      "doHardWork()": {
        "notice": "The hard work only invests all underlying assets, and then tells the controller to call hard work on the yCRV vault."
      },
      "investedUnderlyingBalance()": {
        "notice": "Returns the underlying invested balance. This is the amount of yCRV that we are entitled to from the yCRV vault (based on the number of shares we currently have), converted to the underlying assets by the Curve protocol, plus the current balance of the underlying assets."
      },
      "salvage(address,address,uint256)": {
        "notice": "Salvages a token. We cannot salvage the shares in the yCRV pool, yCRV tokens, or underlying assets."
      },
      "setConvertor(address)": {
        "notice": "Replaces the price convertor"
      },
      "underlyingValueFromYCrv(uint256)": {
        "notice": "Returns the value of yCRV in underlying token accounting for slippage and fees."
      },
      "withdrawAllToVault()": {
        "notice": "Withdraws all assets from the vault. We ask the yCRV vault to give us our entire yCRV balance and then convert it to the underlying asset using the Curve protocol."
      },
      "withdrawToVault(uint256)": {
        "notice": "Withdraws an underlying asset from the strategy to the vault in the specified amount by asking the yCRV vault for yCRV (currently all of it), and then removing imbalanced liquidity from the Curve protocol. The rest is deposited back to the yCRV vault. If the amount requested cannot be obtained, the method will get as much as we have."
      },
      "yTokenValueFromUnderlying(uint256)": {
        "notice": "Returns the value of the underlying token in yToken"
      }
    },
    "notice": "Adds the mainnet addresses to the CRVStrategyStable"
  }
}