{
  "contractName": "FeeRewardForwarder",
  "abi": [
    {
      "inputs": [
        {
          "internalType": "address",
          "name": "_storage",
          "type": "address"
        },
        {
          "internalType": "address",
          "name": "_uniswapRouterV2",
          "type": "address"
        }
      ],
      "payable": false,
      "stateMutability": "nonpayable",
      "type": "constructor"
    },
    {
      "anonymous": false,
      "inputs": [
        {
          "indexed": false,
          "internalType": "address",
          "name": "token",
          "type": "address"
        },
        {
          "indexed": false,
          "internalType": "address",
          "name": "pool",
          "type": "address"
        }
      ],
      "name": "TokenPoolSet",
      "type": "event"
    },
    {
      "constant": true,
      "inputs": [],
      "name": "governance",
      "outputs": [
        {
          "internalType": "address",
          "name": "",
          "type": "address"
        }
      ],
      "payable": false,
      "stateMutability": "view",
      "type": "function"
    },
    {
      "constant": true,
      "inputs": [],
      "name": "profitSharingPool",
      "outputs": [
        {
          "internalType": "address",
          "name": "",
          "type": "address"
        }
      ],
      "payable": false,
      "stateMutability": "view",
      "type": "function"
    },
    {
      "constant": false,
      "inputs": [
        {
          "internalType": "address",
          "name": "_store",
          "type": "address"
        }
      ],
      "name": "setStorage",
      "outputs": [],
      "payable": false,
      "stateMutability": "nonpayable",
      "type": "function"
    },
    {
      "constant": true,
      "inputs": [],
      "name": "store",
      "outputs": [
        {
          "internalType": "contract Storage",
          "name": "",
          "type": "address"
        }
      ],
      "payable": false,
      "stateMutability": "view",
      "type": "function"
    },
    {
      "constant": true,
      "inputs": [],
      "name": "targetToken",
      "outputs": [
        {
          "internalType": "address",
          "name": "",
          "type": "address"
        }
      ],
      "payable": false,
      "stateMutability": "view",
      "type": "function"
    },
    {
      "constant": true,
      "inputs": [],
      "name": "uniswapRouterV2",
      "outputs": [
        {
          "internalType": "address",
          "name": "",
          "type": "address"
        }
      ],
      "payable": false,
      "stateMutability": "view",
      "type": "function"
    },
    {
      "constant": true,
      "inputs": [
        {
          "internalType": "address",
          "name": "",
          "type": "address"
        },
        {
          "internalType": "address",
          "name": "",
          "type": "address"
        },
        {
          "internalType": "uint256",
          "name": "",
          "type": "uint256"
        }
      ],
      "name": "uniswapRoutes",
      "outputs": [
        {
          "internalType": "address",
          "name": "",
          "type": "address"
        }
      ],
      "payable": false,
      "stateMutability": "view",
      "type": "function"
    },
    {
      "constant": false,
      "inputs": [
        {
          "internalType": "address",
          "name": "_pool",
          "type": "address"
        }
      ],
      "name": "setTokenPool",
      "outputs": [],
      "payable": false,
      "stateMutability": "nonpayable",
      "type": "function"
    },
    {
      "constant": false,
      "inputs": [
        {
          "internalType": "address",
          "name": "from",
          "type": "address"
        },
        {
          "internalType": "address",
          "name": "to",
          "type": "address"
        },
        {
          "internalType": "address[]",
          "name": "_uniswapRoute",
          "type": "address[]"
        }
      ],
      "name": "setConversionPath",
      "outputs": [],
      "payable": false,
      "stateMutability": "nonpayable",
      "type": "function"
    },
    {
      "constant": false,
      "inputs": [
        {
          "internalType": "address",
          "name": "_token",
          "type": "address"
        },
        {
          "internalType": "uint256",
          "name": "_amount",
          "type": "uint256"
        }
      ],
      "name": "poolNotifyFixedTarget",
      "outputs": [],
      "payable": false,
      "stateMutability": "nonpayable",
      "type": "function"
    }
  ],
  "bytecode": "0x608060405234801561001057600080fd5b506040516112a83803806112a88339818101604052604081101561003357600080fd5b508051602090910151816001600160a01b038116610098576040805162461bcd60e51b815260206004820152601e60248201527f6e65772073746f726167652073686f756c646e277420626520656d7074790000604482015290519081900360640190fd5b600080546001600160a01b0319166001600160a01b039283161790558116610107576040805162461bcd60e51b815260206004820152601b60248201527f756e6973776170526f757465725632206e6f7420646566696e65640000000000604482015290519081900360640190fd5b600480546001600160a01b0319166001600160a01b039290921691909117905550611171806101376000396000f3fe608060405234801561001057600080fd5b506004361061009e5760003560e01c8063841af24411610066578063841af244146101bb5780639137c1a7146101e7578063975057e71461020d578063cdeb1ccd14610215578063ec362d4a1461024b5761009e565b8063327107f7146100a357806340c8e2db146100c7578063596fa9e3146101855780635aa6e6751461018d5780637764b4d214610195575b600080fd5b6100ab610253565b604080516001600160a01b039092168252519081900360200190f35b610183600480360360608110156100dd57600080fd5b6001600160a01b03823581169260208101359091169181019060608101604082013564010000000081111561011157600080fd5b82018360208201111561012357600080fd5b8035906020019184602083028401116401000000008311171561014557600080fd5b919080806020026020016040519081016040528093929190818152602001838360200280828437600092019190915250929550610262945050505050565b005b6100ab610421565b6100ab610430565b610183600480360360208110156101ab57600080fd5b50356001600160a01b03166104b1565b610183600480360360408110156101d157600080fd5b506001600160a01b03813516906020013561063b565b610183600480360360208110156101fd57600080fd5b50356001600160a01b0316610a96565b6100ab610bcc565b6100ab6004803603606081101561022b57600080fd5b506001600160a01b03813581169160208101359091169060400135610bdb565b6100ab610c1d565b6002546001600160a01b031681565b600054604080516337b87c3960e21b815233600482015290516001600160a01b039092169163dee1f0e491602480820192602092909190829003018186803b1580156102ad57600080fd5b505afa1580156102c1573d6000803e3d6000fd5b505050506040513d60208110156102d757600080fd5b505161031b576040805162461bcd60e51b815260206004820152600e60248201526d4e6f7420676f7665726e616e636560901b604482015290519081900360640190fd5b8060008151811061032857fe5b60200260200101516001600160a01b0316836001600160a01b03161461037f5760405162461bcd60e51b815260040180806020018281038252603b81526020018061106a603b913960400191505060405180910390fd5b8060018251038151811061038f57fe5b60200260200101516001600160a01b0316826001600160a01b0316146103e65760405162461bcd60e51b81526004018080602001828103825260388152602001806110a56038913960400191505060405180910390fd5b6001600160a01b0380841660009081526001602090815260408083209386168352928152919020825161041b92840190610fe0565b50505050565b6004546001600160a01b031681565b60008060009054906101000a90046001600160a01b03166001600160a01b0316635aa6e6756040518163ffffffff1660e01b815260040160206040518083038186803b15801561047f57600080fd5b505afa158015610493573d6000803e3d6000fd5b505050506040513d60208110156104a957600080fd5b505190505b90565b600054604080516337b87c3960e21b815233600482015290516001600160a01b039092169163dee1f0e491602480820192602092909190829003018186803b1580156104fc57600080fd5b505afa158015610510573d6000803e3d6000fd5b505050506040513d602081101561052657600080fd5b505161056a576040805162461bcd60e51b815260206004820152600e60248201526d4e6f7420676f7665726e616e636560901b604482015290519081900360640190fd5b806001600160a01b031663f7c618c16040518163ffffffff1660e01b815260040160206040518083038186803b1580156105a357600080fd5b505afa1580156105b7573d6000803e3d6000fd5b505050506040513d60208110156105cd57600080fd5b5051600280546001600160a01b039283166001600160a01b031991821617918290556003805485851692168217905560408051929093168252602082015281517f250f0cc7fc2ed10e8df5e112b69b17c584e0a8b07f66ffe24a5d03e1731193ca929181900390910190a150565b6002546001600160a01b03838116911614156106dd57600354610673906001600160a01b03848116913391168463ffffffff610c2c16565b60035460408051633c6b16ab60e01b81526004810184905290516001600160a01b0390921691633c6b16ab9160248082019260009290919082900301818387803b1580156106c057600080fd5b505af11580156106d4573d6000803e3d6000fd5b50505050610a92565b6001600160a01b0380831660009081526001602081815260408084206002549095168452939052919020541115610a92576107296001600160a01b03831633308463ffffffff610c2c16565b604080516370a0823160e01b815230600482015290516000916001600160a01b038516916370a0823191602480820192602092909190829003018186803b15801561077357600080fd5b505afa158015610787573d6000803e3d6000fd5b505050506040513d602081101561079d57600080fd5b50516004549091506107c3906001600160a01b038581169116600063ffffffff610c8616565b6004546107e3906001600160a01b0385811691168363ffffffff610c8616565b600480546001600160a01b038581166000908152600160208181526040808420600254861685529091529182902091516338ed173960e01b8152948501868152602486018290523060648701819052426084880181905260a060448901908152855460a48a0181905296909716976338ed1739978a9795969593949293909160c401908690801561089d57602002820191906000526020600020905b81546001600160a01b0316815260019091019060200180831161087f575b50509650505050505050600060405180830381600087803b1580156108c157600080fd5b505af11580156108d5573d6000803e3d6000fd5b505050506040513d6000823e601f3d908101601f1916820160405260208110156108fe57600080fd5b810190808051604051939291908464010000000082111561091e57600080fd5b90830190602082018581111561093357600080fd5b825186602082028301116401000000008211171561095057600080fd5b82525081516020918201928201910280838360005b8381101561097d578181015183820152602001610965565b505050509190910160408181526002546370a0823160e01b83523060048401529051600097506001600160a01b0390911695506370a08231945060248083019450602093509091829003018186803b1580156109d857600080fd5b505afa1580156109ec573d6000803e3d6000fd5b505050506040513d6020811015610a0257600080fd5b5051600354600254919250610a2a916001600160a01b0390811691168363ffffffff610d9e16565b60035460408051633c6b16ab60e01b81526004810184905290516001600160a01b0390921691633c6b16ab9160248082019260009290919082900301818387803b158015610a7757600080fd5b505af1158015610a8b573d6000803e3d6000fd5b5050505050505b5050565b600054604080516337b87c3960e21b815233600482015290516001600160a01b039092169163dee1f0e491602480820192602092909190829003018186803b158015610ae157600080fd5b505afa158015610af5573d6000803e3d6000fd5b505050506040513d6020811015610b0b57600080fd5b5051610b4f576040805162461bcd60e51b815260206004820152600e60248201526d4e6f7420676f7665726e616e636560901b604482015290519081900360640190fd5b6001600160a01b038116610baa576040805162461bcd60e51b815260206004820152601e60248201527f6e65772073746f726167652073686f756c646e277420626520656d7074790000604482015290519081900360640190fd5b600080546001600160a01b0319166001600160a01b0392909216919091179055565b6000546001600160a01b031681565b60016020528260005260406000206020528160005260406000208181548110610c0057fe5b6000918252602090912001546001600160a01b0316925083915050565b6003546001600160a01b031681565b604080516001600160a01b0385811660248301528416604482015260648082018490528251808303909101815260849091019091526020810180516001600160e01b03166323b872dd60e01b17905261041b908590610dec565b801580610d0c575060408051636eb1769f60e11b81523060048201526001600160a01b03848116602483015291519185169163dd62ed3e91604480820192602092909190829003018186803b158015610cde57600080fd5b505afa158015610cf2573d6000803e3d6000fd5b505050506040513d6020811015610d0857600080fd5b5051155b610d475760405162461bcd60e51b81526004018080602001828103825260368152602001806111076036913960400191505060405180910390fd5b604080516001600160a01b038416602482015260448082018490528251808303909101815260649091019091526020810180516001600160e01b031663095ea7b360e01b179052610d99908490610dec565b505050565b604080516001600160a01b038416602482015260448082018490528251808303909101815260649091019091526020810180516001600160e01b031663a9059cbb60e01b179052610d999084905b610dfe826001600160a01b0316610fa4565b610e4f576040805162461bcd60e51b815260206004820152601f60248201527f5361666545524332303a2063616c6c20746f206e6f6e2d636f6e747261637400604482015290519081900360640190fd5b60006060836001600160a01b0316836040518082805190602001908083835b60208310610e8d5780518252601f199092019160209182019101610e6e565b6001836020036101000a0380198251168184511680821785525050505050509050019150506000604051808303816000865af19150503d8060008114610eef576040519150601f19603f3d011682016040523d82523d6000602084013e610ef4565b606091505b509150915081610f4b576040805162461bcd60e51b815260206004820181905260248201527f5361666545524332303a206c6f772d6c6576656c2063616c6c206661696c6564604482015290519081900360640190fd5b80511561041b57808060200190516020811015610f6757600080fd5b505161041b5760405162461bcd60e51b815260040180806020018281038252602a8152602001806110dd602a913960400191505060405180910390fd5b6000813f7fc5d2460186f7233c927e7db2dcc703c0e500b653ca82273b7bfad8045d85a470818114801590610fd857508115155b949350505050565b828054828255906000526020600020908101928215611035579160200282015b8281111561103557825182546001600160a01b0319166001600160a01b03909116178255602090920191600190910190611000565b50611041929150611045565b5090565b6104ae91905b808211156110415780546001600160a01b031916815560010161104b56fe54686520666972737420746f6b656e206f662074686520556e697377617020726f757465206d757374206265207468652066726f6d20746f6b656e546865206c61737420746f6b656e206f662074686520556e697377617020726f757465206d7573742062652074686520746f20746f6b656e5361666545524332303a204552433230206f7065726174696f6e20646964206e6f7420737563636565645361666545524332303a20617070726f76652066726f6d206e6f6e2d7a65726f20746f206e6f6e2d7a65726f20616c6c6f77616e6365a265627a7a723158206b4b08474e53fbbb2e12b8d0e4efae5fd797644b3014ac3048a5d8277f6792d864736f6c63430005100032",
  "source": "pragma solidity 0.5.16;\n\nimport \"./Governable.sol\";\nimport \"@openzeppelin/contracts/token/ERC20/SafeERC20.sol\";\nimport \"@openzeppelin/contracts/token/ERC20/IERC20.sol\";\nimport \"./hardworkInterface/IRewardPool.sol\";\nimport \"./uniswap/interfaces/IUniswapV2Router02.sol\";\n\ncontract FeeRewardForwarder is Governable {\n  using SafeERC20 for IERC20;\n\n  mapping (address => mapping (address => address[])) public uniswapRoutes;\n\n  // the targeted reward token to convert everything to\n  address public targetToken;\n  address public profitSharingPool;\n\n  address public uniswapRouterV2;\n\n  event TokenPoolSet(address token, address pool);\n\n  constructor(address _storage, address _uniswapRouterV2) public Governable(_storage) {\n    require(_uniswapRouterV2 != address(0), \"uniswapRouterV2 not defined\");\n    uniswapRouterV2 = _uniswapRouterV2;\n  }\n\n  /*\n  *   Set the pool that will receive the reward token\n  *   based on the address of the reward Token\n  */\n  function setTokenPool(address _pool) public onlyGovernance {\n    targetToken = IRewardPool(_pool).rewardToken();\n    profitSharingPool = _pool;\n    emit TokenPoolSet(targetToken, _pool);\n  }\n\n  /**\n  * Sets the path for swapping tokens to the to address\n  * The to address is not validated to match the targetToken,\n  * so that we could first update the paths, and then,\n  * set the new target\n  */\n  function setConversionPath(address from, address to, address[] memory _uniswapRoute)\n  public onlyGovernance {\n    require(from == _uniswapRoute[0],\n      \"The first token of the Uniswap route must be the from token\");\n    require(to == _uniswapRoute[_uniswapRoute.length - 1],\n      \"The last token of the Uniswap route must be the to token\");\n    uniswapRoutes[from][to] = _uniswapRoute;\n  }\n\n  // Transfers the funds from the msg.sender to the pool\n  // under normal circumstances, msg.sender is the strategy\n  function poolNotifyFixedTarget(address _token, uint256 _amount) external {\n    if (_token == targetToken) {\n      // this is already the right token\n      IERC20(_token).safeTransferFrom(msg.sender, profitSharingPool, _amount);\n      IRewardPool(profitSharingPool).notifyRewardAmount(_amount);\n    } else {\n      // we need to convert\n      if (uniswapRoutes[_token][targetToken].length > 1) {\n        IERC20(_token).safeTransferFrom(msg.sender, address(this), _amount);\n        uint256 balanceToSwap = IERC20(_token).balanceOf(address(this));\n\n        IERC20(_token).safeApprove(uniswapRouterV2, 0);\n        IERC20(_token).safeApprove(uniswapRouterV2, balanceToSwap);\n\n        IUniswapV2Router02(uniswapRouterV2).swapExactTokensForTokens(\n          balanceToSwap,\n          1, // we will accept any amount\n          uniswapRoutes[_token][targetToken],\n          address(this),\n          block.timestamp\n        );\n        // now we can send this token forward\n        uint256 convertedRewardAmount = IERC20(targetToken).balanceOf(address(this));\n        IERC20(targetToken).safeTransfer(profitSharingPool, convertedRewardAmount);\n        IRewardPool(profitSharingPool).notifyRewardAmount(convertedRewardAmount);\n      }\n      // else the route does not exist for this token\n      // do not take any fees - leave them in the controller\n    }\n  }\n}\n",
  "sourcePath": "/Users/theo/projects/harvest/contracts/FeeRewardForwarder.sol",
  "compiler": {
    "name": "solc",
    "version": "0.5.16+commit.9c3226ce.Emscripten.clang"
  },
  "schemaVersion": "3.2.0",
  "updatedAt": "2020-08-26T21:19:20.701Z",
  "networkType": "ethereum",
  "devdoc": {
    "methods": {}
  },
  "userdoc": {
    "methods": {
      "setConversionPath(address,address,address[])": {
        "notice": "Sets the path for swapping tokens to the to address The to address is not validated to match the targetToken, so that we could first update the paths, and then, set the new target"
      }
    }
  }
}