{
  "contractName": "Vault",
  "abi": [
    {
      "inputs": [
        {
          "internalType": "address",
          "name": "_storage",
          "type": "address"
        },
        {
          "internalType": "address",
          "name": "_underlying",
          "type": "address"
        },
        {
          "internalType": "uint256",
          "name": "_toInvestNumerator",
          "type": "uint256"
        },
        {
          "internalType": "uint256",
          "name": "_toInvestDenominator",
          "type": "uint256"
        }
      ],
      "payable": false,
      "stateMutability": "nonpayable",
      "type": "constructor"
    },
    {
      "anonymous": false,
      "inputs": [
        {
          "indexed": true,
          "internalType": "address",
          "name": "owner",
          "type": "address"
        },
        {
          "indexed": true,
          "internalType": "address",
          "name": "spender",
          "type": "address"
        },
        {
          "indexed": false,
          "internalType": "uint256",
          "name": "value",
          "type": "uint256"
        }
      ],
      "name": "Approval",
      "type": "event"
    },
    {
      "anonymous": false,
      "inputs": [
        {
          "indexed": true,
          "internalType": "address",
          "name": "beneficiary",
          "type": "address"
        },
        {
          "indexed": false,
          "internalType": "uint256",
          "name": "amount",
          "type": "uint256"
        }
      ],
      "name": "Deposit",
      "type": "event"
    },
    {
      "anonymous": false,
      "inputs": [
        {
          "indexed": false,
          "internalType": "uint256",
          "name": "amount",
          "type": "uint256"
        }
      ],
      "name": "Invest",
      "type": "event"
    },
    {
      "anonymous": false,
      "inputs": [
        {
          "indexed": true,
          "internalType": "address",
          "name": "from",
          "type": "address"
        },
        {
          "indexed": true,
          "internalType": "address",
          "name": "to",
          "type": "address"
        },
        {
          "indexed": false,
          "internalType": "uint256",
          "name": "value",
          "type": "uint256"
        }
      ],
      "name": "Transfer",
      "type": "event"
    },
    {
      "anonymous": false,
      "inputs": [
        {
          "indexed": true,
          "internalType": "address",
          "name": "beneficiary",
          "type": "address"
        },
        {
          "indexed": false,
          "internalType": "uint256",
          "name": "amount",
          "type": "uint256"
        }
      ],
      "name": "Withdraw",
      "type": "event"
    },
    {
      "constant": true,
      "inputs": [
        {
          "internalType": "address",
          "name": "owner",
          "type": "address"
        },
        {
          "internalType": "address",
          "name": "spender",
          "type": "address"
        }
      ],
      "name": "allowance",
      "outputs": [
        {
          "internalType": "uint256",
          "name": "",
          "type": "uint256"
        }
      ],
      "payable": false,
      "stateMutability": "view",
      "type": "function"
    },
    {
      "constant": false,
      "inputs": [
        {
          "internalType": "address",
          "name": "spender",
          "type": "address"
        },
        {
          "internalType": "uint256",
          "name": "amount",
          "type": "uint256"
        }
      ],
      "name": "approve",
      "outputs": [
        {
          "internalType": "bool",
          "name": "",
          "type": "bool"
        }
      ],
      "payable": false,
      "stateMutability": "nonpayable",
      "type": "function"
    },
    {
      "constant": true,
      "inputs": [
        {
          "internalType": "address",
          "name": "account",
          "type": "address"
        }
      ],
      "name": "balanceOf",
      "outputs": [
        {
          "internalType": "uint256",
          "name": "",
          "type": "uint256"
        }
      ],
      "payable": false,
      "stateMutability": "view",
      "type": "function"
    },
    {
      "constant": true,
      "inputs": [
        {
          "internalType": "address",
          "name": "",
          "type": "address"
        }
      ],
      "name": "contributions",
      "outputs": [
        {
          "internalType": "uint256",
          "name": "",
          "type": "uint256"
        }
      ],
      "payable": false,
      "stateMutability": "view",
      "type": "function"
    },
    {
      "constant": true,
      "inputs": [],
      "name": "controller",
      "outputs": [
        {
          "internalType": "address",
          "name": "",
          "type": "address"
        }
      ],
      "payable": false,
      "stateMutability": "view",
      "type": "function"
    },
    {
      "constant": true,
      "inputs": [],
      "name": "decimals",
      "outputs": [
        {
          "internalType": "uint8",
          "name": "",
          "type": "uint8"
        }
      ],
      "payable": false,
      "stateMutability": "view",
      "type": "function"
    },
    {
      "constant": false,
      "inputs": [
        {
          "internalType": "address",
          "name": "spender",
          "type": "address"
        },
        {
          "internalType": "uint256",
          "name": "subtractedValue",
          "type": "uint256"
        }
      ],
      "name": "decreaseAllowance",
      "outputs": [
        {
          "internalType": "bool",
          "name": "",
          "type": "bool"
        }
      ],
      "payable": false,
      "stateMutability": "nonpayable",
      "type": "function"
    },
    {
      "constant": true,
      "inputs": [],
      "name": "governance",
      "outputs": [
        {
          "internalType": "address",
          "name": "",
          "type": "address"
        }
      ],
      "payable": false,
      "stateMutability": "view",
      "type": "function"
    },
    {
      "constant": false,
      "inputs": [
        {
          "internalType": "address",
          "name": "spender",
          "type": "address"
        },
        {
          "internalType": "uint256",
          "name": "addedValue",
          "type": "uint256"
        }
      ],
      "name": "increaseAllowance",
      "outputs": [
        {
          "internalType": "bool",
          "name": "",
          "type": "bool"
        }
      ],
      "payable": false,
      "stateMutability": "nonpayable",
      "type": "function"
    },
    {
      "constant": true,
      "inputs": [],
      "name": "name",
      "outputs": [
        {
          "internalType": "string",
          "name": "",
          "type": "string"
        }
      ],
      "payable": false,
      "stateMutability": "view",
      "type": "function"
    },
    {
      "constant": false,
      "inputs": [
        {
          "internalType": "address",
          "name": "_store",
          "type": "address"
        }
      ],
      "name": "setStorage",
      "outputs": [],
      "payable": false,
      "stateMutability": "nonpayable",
      "type": "function"
    },
    {
      "constant": true,
      "inputs": [],
      "name": "store",
      "outputs": [
        {
          "internalType": "contract Storage",
          "name": "",
          "type": "address"
        }
      ],
      "payable": false,
      "stateMutability": "view",
      "type": "function"
    },
    {
      "constant": true,
      "inputs": [],
      "name": "strategy",
      "outputs": [
        {
          "internalType": "contract IStrategy",
          "name": "",
          "type": "address"
        }
      ],
      "payable": false,
      "stateMutability": "view",
      "type": "function"
    },
    {
      "constant": true,
      "inputs": [],
      "name": "symbol",
      "outputs": [
        {
          "internalType": "string",
          "name": "",
          "type": "string"
        }
      ],
      "payable": false,
      "stateMutability": "view",
      "type": "function"
    },
    {
      "constant": true,
      "inputs": [],
      "name": "totalSupply",
      "outputs": [
        {
          "internalType": "uint256",
          "name": "",
          "type": "uint256"
        }
      ],
      "payable": false,
      "stateMutability": "view",
      "type": "function"
    },
    {
      "constant": false,
      "inputs": [
        {
          "internalType": "address",
          "name": "recipient",
          "type": "address"
        },
        {
          "internalType": "uint256",
          "name": "amount",
          "type": "uint256"
        }
      ],
      "name": "transfer",
      "outputs": [
        {
          "internalType": "bool",
          "name": "",
          "type": "bool"
        }
      ],
      "payable": false,
      "stateMutability": "nonpayable",
      "type": "function"
    },
    {
      "constant": false,
      "inputs": [
        {
          "internalType": "address",
          "name": "sender",
          "type": "address"
        },
        {
          "internalType": "address",
          "name": "recipient",
          "type": "address"
        },
        {
          "internalType": "uint256",
          "name": "amount",
          "type": "uint256"
        }
      ],
      "name": "transferFrom",
      "outputs": [
        {
          "internalType": "bool",
          "name": "",
          "type": "bool"
        }
      ],
      "payable": false,
      "stateMutability": "nonpayable",
      "type": "function"
    },
    {
      "constant": true,
      "inputs": [],
      "name": "underlying",
      "outputs": [
        {
          "internalType": "contract IERC20",
          "name": "",
          "type": "address"
        }
      ],
      "payable": false,
      "stateMutability": "view",
      "type": "function"
    },
    {
      "constant": true,
      "inputs": [],
      "name": "underlyingUnit",
      "outputs": [
        {
          "internalType": "uint256",
          "name": "",
          "type": "uint256"
        }
      ],
      "payable": false,
      "stateMutability": "view",
      "type": "function"
    },
    {
      "constant": true,
      "inputs": [],
      "name": "vaultFractionToInvestDenominator",
      "outputs": [
        {
          "internalType": "uint256",
          "name": "",
          "type": "uint256"
        }
      ],
      "payable": false,
      "stateMutability": "view",
      "type": "function"
    },
    {
      "constant": true,
      "inputs": [],
      "name": "vaultFractionToInvestNumerator",
      "outputs": [
        {
          "internalType": "uint256",
          "name": "",
          "type": "uint256"
        }
      ],
      "payable": false,
      "stateMutability": "view",
      "type": "function"
    },
    {
      "constant": true,
      "inputs": [
        {
          "internalType": "address",
          "name": "",
          "type": "address"
        }
      ],
      "name": "withdrawals",
      "outputs": [
        {
          "internalType": "uint256",
          "name": "",
          "type": "uint256"
        }
      ],
      "payable": false,
      "stateMutability": "view",
      "type": "function"
    },
    {
      "constant": false,
      "inputs": [],
      "name": "doHardWork",
      "outputs": [],
      "payable": false,
      "stateMutability": "nonpayable",
      "type": "function"
    },
    {
      "constant": true,
      "inputs": [],
      "name": "underlyingBalanceInVault",
      "outputs": [
        {
          "internalType": "uint256",
          "name": "",
          "type": "uint256"
        }
      ],
      "payable": false,
      "stateMutability": "view",
      "type": "function"
    },
    {
      "constant": true,
      "inputs": [],
      "name": "underlyingBalanceWithInvestment",
      "outputs": [
        {
          "internalType": "uint256",
          "name": "",
          "type": "uint256"
        }
      ],
      "payable": false,
      "stateMutability": "view",
      "type": "function"
    },
    {
      "constant": true,
      "inputs": [
        {
          "internalType": "address",
          "name": "holder",
          "type": "address"
        }
      ],
      "name": "getContributions",
      "outputs": [
        {
          "internalType": "uint256",
          "name": "",
          "type": "uint256"
        }
      ],
      "payable": false,
      "stateMutability": "view",
      "type": "function"
    },
    {
      "constant": true,
      "inputs": [
        {
          "internalType": "address",
          "name": "holder",
          "type": "address"
        }
      ],
      "name": "getWithdrawals",
      "outputs": [
        {
          "internalType": "uint256",
          "name": "",
          "type": "uint256"
        }
      ],
      "payable": false,
      "stateMutability": "view",
      "type": "function"
    },
    {
      "constant": true,
      "inputs": [],
      "name": "getPricePerFullShare",
      "outputs": [
        {
          "internalType": "uint256",
          "name": "",
          "type": "uint256"
        }
      ],
      "payable": false,
      "stateMutability": "view",
      "type": "function"
    },
    {
      "constant": true,
      "inputs": [
        {
          "internalType": "address",
          "name": "holder",
          "type": "address"
        }
      ],
      "name": "underlyingBalanceWithInvestmentForHolder",
      "outputs": [
        {
          "internalType": "uint256",
          "name": "",
          "type": "uint256"
        }
      ],
      "payable": false,
      "stateMutability": "view",
      "type": "function"
    },
    {
      "constant": false,
      "inputs": [
        {
          "internalType": "address",
          "name": "_strategy",
          "type": "address"
        }
      ],
      "name": "setStrategy",
      "outputs": [],
      "payable": false,
      "stateMutability": "nonpayable",
      "type": "function"
    },
    {
      "constant": false,
      "inputs": [
        {
          "internalType": "uint256",
          "name": "numerator",
          "type": "uint256"
        },
        {
          "internalType": "uint256",
          "name": "denominator",
          "type": "uint256"
        }
      ],
      "name": "setVaultFractionToInvest",
      "outputs": [],
      "payable": false,
      "stateMutability": "nonpayable",
      "type": "function"
    },
    {
      "constant": false,
      "inputs": [],
      "name": "rebalance",
      "outputs": [],
      "payable": false,
      "stateMutability": "nonpayable",
      "type": "function"
    },
    {
      "constant": true,
      "inputs": [],
      "name": "availableToInvestOut",
      "outputs": [
        {
          "internalType": "uint256",
          "name": "",
          "type": "uint256"
        }
      ],
      "payable": false,
      "stateMutability": "view",
      "type": "function"
    },
    {
      "constant": false,
      "inputs": [
        {
          "internalType": "uint256",
          "name": "amount",
          "type": "uint256"
        }
      ],
      "name": "deposit",
      "outputs": [],
      "payable": false,
      "stateMutability": "nonpayable",
      "type": "function"
    },
    {
      "constant": false,
      "inputs": [
        {
          "internalType": "uint256",
          "name": "amount",
          "type": "uint256"
        },
        {
          "internalType": "address",
          "name": "holder",
          "type": "address"
        }
      ],
      "name": "depositFor",
      "outputs": [],
      "payable": false,
      "stateMutability": "nonpayable",
      "type": "function"
    },
    {
      "constant": false,
      "inputs": [],
      "name": "withdrawAll",
      "outputs": [],
      "payable": false,
      "stateMutability": "nonpayable",
      "type": "function"
    },
    {
      "constant": false,
      "inputs": [
        {
          "internalType": "uint256",
          "name": "numberOfShares",
          "type": "uint256"
        }
      ],
      "name": "withdraw",
      "outputs": [],
      "payable": false,
      "stateMutability": "nonpayable",
      "type": "function"
    }
  ],
  "bytecode": "0x60806040523480156200001157600080fd5b506040516200342538038062003425833981810160405260808110156200003757600080fd5b508051602082015160408084015160609094015181516395d89b4160e01b81529151939492939091859182916001600160a01b038716916395d89b4191600480820192600092909190829003018186803b1580156200009557600080fd5b505afa158015620000aa573d6000803e3d6000fd5b505050506040513d6000823e601f3d908101601f191682016040526020811015620000d457600080fd5b8101908080516040519392919084640100000000821115620000f557600080fd5b9083019060208201858111156200010b57600080fd5b82516401000000008111828201881017156200012657600080fd5b82525081516020918201929091019080838360005b83811015620001555781810151838201526020016200013b565b50505050905090810190601f168015620001835780820380516001836020036101000a031916815260200191505b506040525050506040516020018080644641524d5f60d81b81525060050182805190602001908083835b60208310620001ce5780518252601f199092019160209182019101620001ad565b6001836020036101000a038019825116818451168082178552505050505050905001915050604051602081830303815290604052856001600160a01b03166395d89b416040518163ffffffff1660e01b815260040160006040518083038186803b1580156200023c57600080fd5b505afa15801562000251573d6000803e3d6000fd5b505050506040513d6000823e601f3d908101601f1916820160405260208110156200027b57600080fd5b81019080805160405193929190846401000000008211156200029c57600080fd5b908301906020820185811115620002b257600080fd5b8251640100000000811182820188101715620002cd57600080fd5b82525081516020918201929091019080838360005b83811015620002fc578181015183820152602001620002e2565b50505050905090810190601f1680156200032a5780820380516001836020036101000a031916815260200191505b506040525050506040516020018080603360f91b81525060010182805190602001908083835b60208310620003715780518252601f19909201916020918201910162000350565b6001836020036101000a038019825116818451168082178552505050505050905001915050604051602081830303815290604052866001600160a01b031663313ce5676040518163ffffffff1660e01b815260040160206040518083038186803b158015620003df57600080fd5b505afa158015620003f4573d6000803e3d6000fd5b505050506040513d60208110156200040b57600080fd5b505182516200042290600390602086019062000614565b5081516200043890600490602085019062000614565b506005805460ff191660ff9290921691909117905550506001600160a01b038116620004ab576040805162461bcd60e51b815260206004820152601e60248201527f6e65772073746f726167652073686f756c646e277420626520656d7074790000604482015290519081900360640190fd5b60058054610100600160a81b0319166101006001600160a01b0393841602179055600780546001600160a01b03191691861691909117905550808211156200053a576040805162461bcd60e51b815260206004820152601c60248201527f63616e6e6f7420696e76657374206d6f7265207468616e203130302500000000604482015290519081900360640190fd5b8062000582576040805162461bcd60e51b8152602060048201526012602482015271063616e6e6f742064697669646520627920360741b604482015290519081900360640190fd5b600c819055600b8290556007546040805163313ce56760e01b815290516001600160a01b039092169163313ce56791600480820192602092909190829003018186803b158015620005d257600080fd5b505afa158015620005e7573d6000803e3d6000fd5b505050506040513d6020811015620005fe57600080fd5b505160ff16600a0a60085550620006b992505050565b828054600181600116156101000203166002900490600052602060002090601f016020900481019282601f106200065757805160ff191683800117855562000687565b8280016001018555821562000687579182015b82811115620006875782518255916020019190600101906200066a565b506200069592915062000699565b5090565b620006b691905b80821115620006955760008155600101620006a0565b90565b612d5c80620006c96000396000f3fe608060405234801561001057600080fd5b50600436106102275760003560e01c806370a0823111610130578063a457c2d7116100b8578063b6b55f251161007c578063b6b55f25146105fd578063c2baf3561461061a578063dd62ed3e14610622578063f2768c1e14610650578063f77c47911461065857610227565b8063a457c2d714610572578063a5b1a24d1461059e578063a8c62e76146105c1578063a9059cbb146105c9578063b592c390146105f557610227565b8063853828b6116100ff578063853828b61461050e5780638cb1d67f146105165780639137c1a71461053c57806395d89b4114610562578063975057e71461056a57610227565b806370a08231146104b257806377c7b8fc146104d85780637a9262a2146104e05780637d7c2a1c1461050657610227565b806339509351116101b35780634af1758b116101825780634af1758b1461046e5780634fa5d8541461047657806353ceb01c1461047e5780635aa6e675146104865780636f307dc3146104aa57610227565b806339509351146103d05780633a2b643a146103fc5780633f19d0431461042257806342e94c901461044857610227565b806323b872dd116101fa57806323b872dd1461030b5780632e1a7d4d14610341578063313ce5671461036057806333a100ca1461037e57806336efd16f146103a457610227565b806306fdde031461022c578063095ea7b3146102a957806318160ddd146102e95780631bf8e7be14610303575b600080fd5b610234610660565b6040805160208082528351818301528351919283929083019185019080838360005b8381101561026e578181015183820152602001610256565b50505050905090810190601f16801561029b5780820380516001836020036101000a031916815260200191505b509250505060405180910390f35b6102d5600480360360408110156102bf57600080fd5b506001600160a01b0381351690602001356106f7565b604080519115158252519081900360200190f35b6102f1610715565b60408051918252519081900360200190f35b6102f161071b565b6102d56004803603606081101561032157600080fd5b506001600160a01b038135811691602081013590911690604001356107c8565b61035e6004803603602081101561035757600080fd5b5035610855565b005b610368610ade565b6040805160ff9092168252519081900360200190f35b61035e6004803603602081101561039457600080fd5b50356001600160a01b0316610ae7565b61035e600480360360408110156103ba57600080fd5b50803590602001356001600160a01b0316610ef5565b6102d5600480360360408110156103e657600080fd5b506001600160a01b038135169060200135610fd5565b6102f16004803603602081101561041257600080fd5b50356001600160a01b0316611029565b6102f16004803603602081101561043857600080fd5b50356001600160a01b0316611048565b6102f16004803603602081101561045e57600080fd5b50356001600160a01b0316611063565b6102f1611075565b61035e61107b565b6102f161127d565b61048e611283565b604080516001600160a01b039092168252519081900360200190f35b61048e611304565b6102f1600480360360208110156104c857600080fd5b50356001600160a01b0316611313565b6102f161132e565b6102f1600480360360208110156104f657600080fd5b50356001600160a01b031661136e565b61035e611380565b61035e6114ca565b6102f16004803603602081101561052c57600080fd5b50356001600160a01b03166116aa565b61035e6004803603602081101561055257600080fd5b50356001600160a01b03166116df565b61023461181f565b61048e611880565b6102d56004803603604081101561058857600080fd5b506001600160a01b038135169060200135611894565b61035e600480360360408110156105b457600080fd5b5080359060200135611902565b61048e611a47565b6102d5600480360360408110156105df57600080fd5b506001600160a01b038135169060200135611a56565b6102f1611a6a565b61035e6004803603602081101561061357600080fd5b5035611b4f565b6102f1611c2b565b6102f16004803603604081101561063857600080fd5b506001600160a01b0381358116916020013516611c76565b6102f1611ca1565b61048e611ca7565b60038054604080516020601f60026000196101006001881615020190951694909404938401819004810282018101909252828152606093909290918301828280156106ec5780601f106106c1576101008083540402835291602001916106ec565b820191906000526020600020905b8154815290600101906020018083116106cf57829003601f168201915b505050505090505b90565b600061070b610704611cf7565b8484611cfb565b5060015b92915050565b60025490565b6006546000906001600160a01b031661073d57610736611c2b565b90506106f4565b600654604080516322e80f2560e11b815290516107c3926001600160a01b0316916345d01e4a916004808301926020929190829003018186803b15801561078357600080fd5b505afa158015610797573d6000803e3d6000fd5b505050506040513d60208110156107ad57600080fd5b50516107b7611c2b565b9063ffffffff611de716565b905090565b60006107d5848484611e48565b61084b846107e1611cf7565b61084685604051806060016040528060288152602001612bec602891396001600160a01b038a1660009081526001602052604081209061081f611cf7565b6001600160a01b03168152602081019190915260400160002054919063ffffffff611fa416565b611cfb565b5060019392505050565b600061085f610715565b116108a7576040805162461bcd60e51b81526020600482015260136024820152725661756c7420686173206e6f2073686172657360681b604482015290519081900360640190fd5b600081116108e65760405162461bcd60e51b8152600401808060200182810382526025815260200180612c146025913960400191505060405180910390fd5b60006108f0610715565b90506108fc338361203b565b60006109268261091a8561090e61071b565b9063ffffffff61213716565b9063ffffffff61219016565b9050610930611c2b565b811115610a5357818314156109ac57600660009054906101000a90046001600160a01b03166001600160a01b031663bfd131f16040518163ffffffff1660e01b8152600401600060405180830381600087803b15801561098f57600080fd5b505af11580156109a3573d6000803e3d6000fd5b50505050610a30565b60006109c66109b9611c2b565b839063ffffffff6121d216565b600654604080516319d1885d60e31b81526004810184905290519293506001600160a01b039091169163ce8c42e89160248082019260009290919082900301818387803b158015610a1657600080fd5b505af1158015610a2a573d6000803e3d6000fd5b50505050505b610a50610a438361091a8661090e61071b565b610a4b611c2b565b612214565b90505b600754610a70906001600160a01b0316338363ffffffff61222a16565b336000908152600a6020526040902054610a90908263ffffffff611de716565b336000818152600a6020908152604091829020939093558051848152905191927f884edad9ce6fa2440d8a54cc123490eb96d2768479d49ff9c7366125a942436492918290030190a2505050565b60055460ff1690565b6005546040805163b429afeb60e01b815233600482015290516101009092046001600160a01b03169163b429afeb91602480820192602092909190829003018186803b158015610b3657600080fd5b505afa158015610b4a573d6000803e3d6000fd5b505050506040513d6020811015610b6057600080fd5b505180610be45750600554604080516337b87c3960e21b815233600482015290516101009092046001600160a01b03169163dee1f0e491602480820192602092909190829003018186803b158015610bb757600080fd5b505afa158015610bcb573d6000803e3d6000fd5b505050506040513d6020811015610be157600080fd5b50515b610c1f5760405162461bcd60e51b815260040180806020018281038252602b815260200180612a46602b913960400191505060405180910390fd5b6001600160a01b038116610c7a576040805162461bcd60e51b815260206004820152601d60248201527f6e6577205f73747261746567792063616e6e6f7420626520656d707479000000604482015290519081900360640190fd5b60075460408051636f307dc360e01b815290516001600160a01b0392831692841691636f307dc3916004808301926020929190829003018186803b158015610cc157600080fd5b505afa158015610cd5573d6000803e3d6000fd5b505050506040513d6020811015610ceb57600080fd5b50516001600160a01b031614610d325760405162461bcd60e51b815260040180806020018281038252602f815260200180612b9c602f913960400191505060405180910390fd5b306001600160a01b0316816001600160a01b031663fbfa77cf6040518163ffffffff1660e01b815260040160206040518083038186803b158015610d7557600080fd5b505afa158015610d89573d6000803e3d6000fd5b505050506040513d6020811015610d9f57600080fd5b50516001600160a01b031614610de65760405162461bcd60e51b815260040180806020018281038252602a815260200180612b24602a913960400191505060405180910390fd5b6006546001600160a01b03828116911614610ef2576006546001600160a01b031615610e9957600654600754610e30916001600160a01b039182169116600063ffffffff61228116565b600660009054906101000a90046001600160a01b03166001600160a01b031663bfd131f16040518163ffffffff1660e01b8152600401600060405180830381600087803b158015610e8057600080fd5b505af1158015610e94573d6000803e3d6000fd5b505050505b600680546001600160a01b0319166001600160a01b038381169190911791829055600754610ecd9290821691166000612281565b600654600754610ef2916001600160a01b03918216911660001963ffffffff61228116565b50565b33321480610f8b5750610f06611ca7565b6001600160a01b03166330e412ad336040518263ffffffff1660e01b815260040180826001600160a01b03166001600160a01b03168152602001915050602060405180830381600087803b158015610f5d57600080fd5b505af1158015610f71573d6000803e3d6000fd5b505050506040513d6020811015610f8757600080fd5b5051155b610fc65760405162461bcd60e51b8152600401808060200182810382526028815260200180612b746028913960400191505060405180910390fd5b610fd1823383612394565b5050565b600061070b610fe2611cf7565b846108468560016000610ff3611cf7565b6001600160a01b03908116825260208083019390935260409182016000908120918c16815292529020549063ffffffff611de716565b6001600160a01b0381166000908152600a60205260409020545b919050565b6001600160a01b031660009081526009602052604090205490565b60096020526000908152604090205481565b600b5481565b6006546001600160a01b03166110d3576040805162461bcd60e51b815260206004820152601860248201527714dd1c985d1959de481b5d5cdd081899481919599a5b995960421b604482015290519081900360640190fd5b6005546040805163b429afeb60e01b815233600482015290516101009092046001600160a01b03169163b429afeb91602480820192602092909190829003018186803b15801561112257600080fd5b505afa158015611136573d6000803e3d6000fd5b505050506040513d602081101561114c57600080fd5b5051806111d05750600554604080516337b87c3960e21b815233600482015290516101009092046001600160a01b03169163dee1f0e491602480820192602092909190829003018186803b1580156111a357600080fd5b505afa1580156111b7573d6000803e3d6000fd5b505050506040513d60208110156111cd57600080fd5b50515b61120b5760405162461bcd60e51b815260040180806020018281038252602b815260200180612a46602b913960400191505060405180910390fd5b6112136125df565b600660009054906101000a90046001600160a01b03166001600160a01b0316634fa5d8546040518163ffffffff1660e01b8152600401600060405180830381600087803b15801561126357600080fd5b505af1158015611277573d6000803e3d6000fd5b50505050565b60085481565b6000600560019054906101000a90046001600160a01b03166001600160a01b0316635aa6e6756040518163ffffffff1660e01b815260040160206040518083038186803b1580156112d357600080fd5b505afa1580156112e7573d6000803e3d6000fd5b505050506040513d60208110156112fd57600080fd5b5051905090565b6007546001600160a01b031681565b6001600160a01b031660009081526020819052604090205490565b6000611338610715565b1561136757611362611348610715565b61091a61135361071b565b6008549063ffffffff61213716565b6107c3565b5060085490565b600a6020526000908152604090205481565b6005546040805163b429afeb60e01b815233600482015290516101009092046001600160a01b03169163b429afeb91602480820192602092909190829003018186803b1580156113cf57600080fd5b505afa1580156113e3573d6000803e3d6000fd5b505050506040513d60208110156113f957600080fd5b50518061147d5750600554604080516337b87c3960e21b815233600482015290516101009092046001600160a01b03169163dee1f0e491602480820192602092909190829003018186803b15801561145057600080fd5b505afa158015611464573d6000803e3d6000fd5b505050506040513d602081101561147a57600080fd5b50515b6114b85760405162461bcd60e51b815260040180806020018281038252602b815260200180612a46602b913960400191505060405180910390fd5b6114c06114ca565b6114c86125df565b565b6005546040805163b429afeb60e01b815233600482015290516101009092046001600160a01b03169163b429afeb91602480820192602092909190829003018186803b15801561151957600080fd5b505afa15801561152d573d6000803e3d6000fd5b505050506040513d602081101561154357600080fd5b5051806115c75750600554604080516337b87c3960e21b815233600482015290516101009092046001600160a01b03169163dee1f0e491602480820192602092909190829003018186803b15801561159a57600080fd5b505afa1580156115ae573d6000803e3d6000fd5b505050506040513d60208110156115c457600080fd5b50515b6116025760405162461bcd60e51b815260040180806020018281038252602b815260200180612a46602b913960400191505060405180910390fd5b6006546001600160a01b031661165a576040805162461bcd60e51b815260206004820152601860248201527714dd1c985d1959de481b5d5cdd081899481919599a5b995960421b604482015290519081900360640190fd5b600660009054906101000a90046001600160a01b03166001600160a01b031663bfd131f16040518163ffffffff1660e01b8152600401600060405180830381600087803b15801561126357600080fd5b60006116b4610715565b6116c057506000611043565b61070f6116cb610715565b61091a6116d785611313565b61090e61071b565b600554604080516337b87c3960e21b815233600482015290516101009092046001600160a01b03169163dee1f0e491602480820192602092909190829003018186803b15801561172e57600080fd5b505afa158015611742573d6000803e3d6000fd5b505050506040513d602081101561175857600080fd5b505161179c576040805162461bcd60e51b815260206004820152600e60248201526d4e6f7420676f7665726e616e636560901b604482015290519081900360640190fd5b6001600160a01b0381166117f7576040805162461bcd60e51b815260206004820152601e60248201527f6e65772073746f726167652073686f756c646e277420626520656d7074790000604482015290519081900360640190fd5b600580546001600160a01b0390921661010002610100600160a81b0319909216919091179055565b60048054604080516020601f60026000196101006001881615020190951694909404938401819004810282018101909252828152606093909290918301828280156106ec5780601f106106c1576101008083540402835291602001916106ec565b60055461010090046001600160a01b031681565b600061070b6118a1611cf7565b8461084685604051806060016040528060258152602001612d0360259139600160006118cb611cf7565b6001600160a01b03908116825260208083019390935260409182016000908120918d1681529252902054919063ffffffff611fa416565b600554604080516337b87c3960e21b815233600482015290516101009092046001600160a01b03169163dee1f0e491602480820192602092909190829003018186803b15801561195157600080fd5b505afa158015611965573d6000803e3d6000fd5b505050506040513d602081101561197b57600080fd5b50516119bf576040805162461bcd60e51b815260206004820152600e60248201526d4e6f7420676f7665726e616e636560901b604482015290519081900360640190fd5b600081116119fe5760405162461bcd60e51b8152600401808060200182810382526022815260200180612a946022913960400191505060405180910390fd5b808210611a3c5760405162461bcd60e51b815260040180806020018281038252602a815260200180612afa602a913960400191505060405180910390fd5b600b91909155600c55565b6006546001600160a01b031681565b600061070b611a63611cf7565b8484611e48565b600080611a81600c5461091a600b5461090e61071b565b90506000600660009054906101000a90046001600160a01b03166001600160a01b03166345d01e4a6040518163ffffffff1660e01b815260040160206040518083038186803b158015611ad357600080fd5b505afa158015611ae7573d6000803e3d6000fd5b505050506040513d6020811015611afd57600080fd5b50519050818110611b13576000925050506106f4565b6000611b25838363ffffffff6121d216565b9050611b2f611c2b565b811115611b4357611b3e611c2b565b611b45565b805b93505050506106f4565b33321480611be55750611b60611ca7565b6001600160a01b03166330e412ad336040518263ffffffff1660e01b815260040180826001600160a01b03166001600160a01b03168152602001915050602060405180830381600087803b158015611bb757600080fd5b505af1158015611bcb573d6000803e3d6000fd5b505050506040513d6020811015611be157600080fd5b5051155b611c205760405162461bcd60e51b8152600401808060200182810382526028815260200180612b746028913960400191505060405180910390fd5b610ef2813333612394565b600754604080516370a0823160e01b815230600482015290516000926001600160a01b0316916370a08231916024808301926020929190829003018186803b1580156112d357600080fd5b6001600160a01b03918216600090815260016020908152604080832093909416825291909152205490565b600c5481565b6000600560019054906101000a90046001600160a01b03166001600160a01b031663f77c47916040518163ffffffff1660e01b815260040160206040518083038186803b1580156112d357600080fd5b3390565b6001600160a01b038316611d405760405162461bcd60e51b8152600401808060200182810382526024815260200180612c7f6024913960400191505060405180910390fd5b6001600160a01b038216611d855760405162461bcd60e51b8152600401808060200182810382526022815260200180612ad86022913960400191505060405180910390fd5b6001600160a01b03808416600081815260016020908152604080832094871680845294825291829020859055815185815291517f8c5be1e5ebec7d5bd14f71427d1e84f3dd0314c0f7b2291e5b200ac8c7c3b9259281900390910190a3505050565b600082820183811015611e41576040805162461bcd60e51b815260206004820152601b60248201527f536166654d6174683a206164646974696f6e206f766572666c6f770000000000604482015290519081900360640190fd5b9392505050565b6001600160a01b038316611e8d5760405162461bcd60e51b8152600401808060200182810382526025815260200180612c5a6025913960400191505060405180910390fd5b6001600160a01b038216611ed25760405162461bcd60e51b8152600401808060200182810382526023815260200180612a716023913960400191505060405180910390fd5b611f1581604051806060016040528060268152602001612b4e602691396001600160a01b038616600090815260208190526040902054919063ffffffff611fa416565b6001600160a01b038085166000908152602081905260408082209390935590841681522054611f4a908263ffffffff611de716565b6001600160a01b038084166000818152602081815260409182902094909455805185815290519193928716927fddf252ad1be2c89b69c2b068fc378daa952ba7f163c4a11628f55a4df523b3ef92918290030190a3505050565b600081848411156120335760405162461bcd60e51b81526004018080602001828103825283818151815260200191508051906020019080838360005b83811015611ff8578181015183820152602001611fe0565b50505050905090810190601f1680156120255780820380516001836020036101000a031916815260200191505b509250505060405180910390fd5b505050900390565b6001600160a01b0382166120805760405162461bcd60e51b8152600401808060200182810382526021815260200180612c396021913960400191505060405180910390fd5b6120c381604051806060016040528060228152602001612ab6602291396001600160a01b038516600090815260208190526040902054919063ffffffff611fa416565b6001600160a01b0383166000908152602081905260409020556002546120ef908263ffffffff6121d216565b6002556040805182815290516000916001600160a01b038516917fddf252ad1be2c89b69c2b068fc378daa952ba7f163c4a11628f55a4df523b3ef9181900360200190a35050565b6000826121465750600061070f565b8282028284828161215357fe5b0414611e415760405162461bcd60e51b8152600401808060200182810382526021815260200180612bcb6021913960400191505060405180910390fd5b6000611e4183836040518060400160405280601a81526020017f536166654d6174683a206469766973696f6e206279207a65726f0000000000008152506126a2565b6000611e4183836040518060400160405280601e81526020017f536166654d6174683a207375627472616374696f6e206f766572666c6f770000815250611fa4565b60008183106122235781611e41565b5090919050565b604080516001600160a01b038416602482015260448082018490528251808303909101815260649091019091526020810180516001600160e01b031663a9059cbb60e01b17905261227c908490612707565b505050565b801580612307575060408051636eb1769f60e11b81523060048201526001600160a01b03848116602483015291519185169163dd62ed3e91604480820192602092909190829003018186803b1580156122d957600080fd5b505afa1580156122ed573d6000803e3d6000fd5b505050506040513d602081101561230357600080fd5b5051155b6123425760405162461bcd60e51b8152600401808060200182810382526036815260200180612ccd6036913960400191505060405180910390fd5b604080516001600160a01b038416602482015260448082018490528251808303909101815260649091019091526020810180516001600160e01b031663095ea7b360e01b17905261227c908490612707565b600083116123dc576040805162461bcd60e51b815260206004820152601060248201526f043616e6e6f74206465706f73697420360841b604482015290519081900360640190fd5b6001600160a01b038116612430576040805162461bcd60e51b81526020600482015260166024820152751a1bdb19195c881b5d5cdd081899481919599a5b995960521b604482015290519081900360640190fd5b6006546001600160a01b0316156124fb57600660009054906101000a90046001600160a01b03166001600160a01b031663c2a2a07b6040518163ffffffff1660e01b815260040160206040518083038186803b15801561248f57600080fd5b505afa1580156124a3573d6000803e3d6000fd5b505050506040513d60208110156124b957600080fd5b50516124fb576040805162461bcd60e51b815260206004820152600c60248201526b2a37b79036bab1b41030b93160a11b604482015290519081900360640190fd5b6000612505610715565b156125325761252d61251561071b565b61091a612520610715565b879063ffffffff61213716565b612534565b835b905061254082826128bf565b60075461255e906001600160a01b031684308763ffffffff6129af16565b6001600160a01b038216600090815260096020526040902054612587908563ffffffff611de716565b6001600160a01b038316600081815260096020908152604091829020939093558051878152905191927fe1fffcc4923d04b559f4d29a8bfc6cda04eb5b0d3c460751c2402c5c5cc9109c92918290030190a250505050565b6006546001600160a01b0316612637576040805162461bcd60e51b815260206004820152601860248201527714dd1c985d1959de481b5d5cdd081899481919599a5b995960421b604482015290519081900360640190fd5b6000612641611a6a565b90508015610ef25760065460075461266c916001600160a01b0391821691168363ffffffff61222a16565b6040805182815290517fa09b7ae452b7bffb9e204c3a016e80caeecf46f554d112644f36fa114dac6ffa9181900360200190a150565b600081836126f15760405162461bcd60e51b8152602060048201818152835160248401528351909283926044909101919085019080838360008315611ff8578181015183820152602001611fe0565b5060008385816126fd57fe5b0495945050505050565b612719826001600160a01b0316612a09565b61276a576040805162461bcd60e51b815260206004820152601f60248201527f5361666545524332303a2063616c6c20746f206e6f6e2d636f6e747261637400604482015290519081900360640190fd5b60006060836001600160a01b0316836040518082805190602001908083835b602083106127a85780518252601f199092019160209182019101612789565b6001836020036101000a0380198251168184511680821785525050505050509050019150506000604051808303816000865af19150503d806000811461280a576040519150601f19603f3d011682016040523d82523d6000602084013e61280f565b606091505b509150915081612866576040805162461bcd60e51b815260206004820181905260248201527f5361666545524332303a206c6f772d6c6576656c2063616c6c206661696c6564604482015290519081900360640190fd5b8051156112775780806020019051602081101561288257600080fd5b50516112775760405162461bcd60e51b815260040180806020018281038252602a815260200180612ca3602a913960400191505060405180910390fd5b6001600160a01b03821661291a576040805162461bcd60e51b815260206004820152601f60248201527f45524332303a206d696e7420746f20746865207a65726f206164647265737300604482015290519081900360640190fd5b60025461292d908263ffffffff611de716565b6002556001600160a01b038216600090815260208190526040902054612959908263ffffffff611de716565b6001600160a01b0383166000818152602081815260408083209490945583518581529351929391927fddf252ad1be2c89b69c2b068fc378daa952ba7f163c4a11628f55a4df523b3ef9281900390910190a35050565b604080516001600160a01b0385811660248301528416604482015260648082018490528251808303909101815260849091019091526020810180516001600160e01b03166323b872dd60e01b179052611277908590612707565b6000813f7fc5d2460186f7233c927e7db2dcc703c0e500b653ca82273b7bfad8045d85a470818114801590612a3d57508115155b94935050505056fe5468652063616c6c6572206d75737420626520636f6e74726f6c6c6572206f7220676f7665726e616e636545524332303a207472616e7366657220746f20746865207a65726f206164647265737364656e6f6d696e61746f72206d7573742062652067726561746572207468616e203045524332303a206275726e20616d6f756e7420657863656564732062616c616e636545524332303a20617070726f766520746f20746865207a65726f206164647265737364656e6f6d696e61746f72206d7573742062652067726561746572207468616e206e756d657261746f7274686520737472617465677920646f6573206e6f742062656c6f6e6720746f2074686973207661756c7445524332303a207472616e7366657220616d6f756e7420657863656564732062616c616e63655468697320736d61727420636f6e747261637420686173206265656e2067726579206c69737465645661756c7420756e6465726c79696e67206d757374206d6174636820537472617465677920756e6465726c79696e67536166654d6174683a206d756c7469706c69636174696f6e206f766572666c6f7745524332303a207472616e7366657220616d6f756e74206578636565647320616c6c6f77616e63656e756d6265724f66536861726573206d7573742062652067726561746572207468616e203045524332303a206275726e2066726f6d20746865207a65726f206164647265737345524332303a207472616e736665722066726f6d20746865207a65726f206164647265737345524332303a20617070726f76652066726f6d20746865207a65726f20616464726573735361666545524332303a204552433230206f7065726174696f6e20646964206e6f7420737563636565645361666545524332303a20617070726f76652066726f6d206e6f6e2d7a65726f20746f206e6f6e2d7a65726f20616c6c6f77616e636545524332303a2064656372656173656420616c6c6f77616e63652062656c6f77207a65726fa265627a7a72315820b60e6b10ff53900b95116b42831703c19d14b129ccb418888d2ca0b5ab851b5664736f6c63430005100032",
  "source": "pragma solidity 0.5.16;\n\nimport \"@openzeppelin/contracts/utils/Address.sol\";\nimport \"@openzeppelin/contracts/math/Math.sol\";\nimport \"@openzeppelin/contracts/math/SafeMath.sol\";\nimport \"@openzeppelin/contracts/token/ERC20/SafeERC20.sol\";\nimport \"@openzeppelin/contracts/token/ERC20/IERC20.sol\";\nimport \"@openzeppelin/contracts/token/ERC20/ERC20.sol\";\nimport \"@openzeppelin/contracts/token/ERC20/ERC20Detailed.sol\";\nimport \"./hardworkInterface/IStrategy.sol\";\nimport \"./hardworkInterface/IController.sol\";\nimport \"./Governable.sol\";\nimport \"./hardworkInterface/IVault.sol\";\nimport \"./Controllable.sol\";\n\ncontract Vault is ERC20, ERC20Detailed, IVault, Controllable {\n  using SafeERC20 for IERC20;\n  using Address for address;\n  using SafeMath for uint256;\n\n  event Withdraw(address indexed beneficiary, uint256 amount);\n  event Deposit(address indexed beneficiary, uint256 amount);\n  event Invest(uint256 amount);\n\n  IStrategy public strategy;\n  IERC20 public underlying;\n\n  uint256 public underlyingUnit;\n\n  mapping(address => uint256) public contributions;\n  mapping(address => uint256) public withdrawals;\n\n  uint256 public vaultFractionToInvestNumerator;\n  uint256 public vaultFractionToInvestDenominator;\n\n  constructor(address _storage,\n      address _underlying,\n      uint256 _toInvestNumerator,\n      uint256 _toInvestDenominator\n  ) ERC20Detailed(\n    string(abi.encodePacked(\"FARM_\", ERC20Detailed(_underlying).symbol())),\n    string(abi.encodePacked(\"f\", ERC20Detailed(_underlying).symbol())),\n    ERC20Detailed(_underlying).decimals()\n  ) Controllable(_storage) public {\n    underlying = IERC20(_underlying);\n    require(_toInvestNumerator <= _toInvestDenominator, \"cannot invest more than 100%\");\n    require(_toInvestDenominator != 0, \"cannot divide by 0\");\n    vaultFractionToInvestDenominator = _toInvestDenominator;\n    vaultFractionToInvestNumerator = _toInvestNumerator;\n    underlyingUnit = 10 ** uint256(ERC20Detailed(address(underlying)).decimals());\n  }\n\n  modifier whenStrategyDefined() {\n    require(address(strategy) != address(0), \"Strategy must be defined\");\n    _;\n  }\n\n  // Only smart contracts will be affected by this modifier\n  modifier defense() {\n    require(\n      (msg.sender == tx.origin) ||                // If it is a normal user and not smart contract,\n                                                  // then the requirement will pass\n      !IController(controller()).greyList(msg.sender), // If it is a smart contract, then\n      \"This smart contract has been grey listed\"  // make sure that it is not on our greyList.\n    );\n    _;\n  }\n\n  /**\n  * Chooses the best strategy and re-invests. If the strategy did not change, it just calls\n  * doHardWork on the current strategy. Call this through controller to claim hard rewards.\n  */\n  function doHardWork() whenStrategyDefined onlyControllerOrGovernance external {\n    // ensure that new funds are invested too\n    invest();\n    strategy.doHardWork();\n  }\n\n  /*\n  * Returns the cash balance across all users in this contract.\n  */\n  function underlyingBalanceInVault() view public returns (uint256) {\n    return underlying.balanceOf(address(this));\n  }\n\n  /* Returns the current underlying (e.g., DAI's) balance together with\n   * the invested amount (if DAI is invested elsewhere by the strategy).\n  */\n  function underlyingBalanceWithInvestment() view public returns (uint256) {\n    if (address(strategy) == address(0)) {\n      // initial state, when not set\n      return underlyingBalanceInVault();\n    }\n    return underlyingBalanceInVault().add(strategy.investedUnderlyingBalance());\n  }\n\n  /*\n  * Allows for getting the total contributions ever made.\n  */\n  function getContributions(address holder) view public returns (uint256) {\n    return contributions[holder];\n  }\n\n  /*\n  * Allows for getting the total withdrawals ever made.\n  */\n  function getWithdrawals(address holder) view public returns (uint256) {\n    return withdrawals[holder];\n  }\n\n  function getPricePerFullShare() public view returns (uint256) {\n    return totalSupply() == 0\n        ? underlyingUnit\n        : underlyingUnit.mul(underlyingBalanceWithInvestment()).div(totalSupply());\n  }\n\n  /* get the user's share (in underlying)\n  */\n  function underlyingBalanceWithInvestmentForHolder(address holder) view external returns (uint256) {\n    if (totalSupply() == 0) {\n      return 0;\n    }\n    return underlyingBalanceWithInvestment()\n        .mul(balanceOf(holder))\n        .div(totalSupply());\n  }\n\n  function setStrategy(address _strategy) public onlyControllerOrGovernance {\n    require(_strategy != address(0), \"new _strategy cannot be empty\");\n    require(IStrategy(_strategy).underlying() == address(underlying), \"Vault underlying must match Strategy underlying\");\n    require(IStrategy(_strategy).vault() == address(this), \"the strategy does not belong to this vault\");\n\n    if (address(_strategy) != address(strategy)) {\n      if (address(strategy) != address(0)) { // if the original strategy (no underscore) is defined\n        underlying.safeApprove(address(strategy), 0);\n        strategy.withdrawAllToVault();\n      }\n      strategy = IStrategy(_strategy);\n      underlying.safeApprove(address(strategy), 0);\n      underlying.safeApprove(address(strategy), uint256(~0));\n    }\n  }\n\n  function setVaultFractionToInvest(uint256 numerator, uint256 denominator) external onlyGovernance {\n    require(denominator > 0, \"denominator must be greater than 0\");\n    require(numerator < denominator, \"denominator must be greater than numerator\");\n    vaultFractionToInvestNumerator = numerator;\n    vaultFractionToInvestDenominator = denominator;\n  }\n\n  function rebalance() external onlyControllerOrGovernance {\n    withdrawAll();\n    invest();\n  }\n\n  function availableToInvestOut() public view returns (uint256) {\n    uint256 wantInvestInTotal = underlyingBalanceWithInvestment()\n        .mul(vaultFractionToInvestNumerator)\n        .div(vaultFractionToInvestDenominator);\n    uint256 alreadyInvested = strategy.investedUnderlyingBalance();\n    if (alreadyInvested >= wantInvestInTotal) {\n      return 0;\n    } else {\n      uint256 remainingToInvest = wantInvestInTotal.sub(alreadyInvested);\n      return remainingToInvest <= underlyingBalanceInVault()\n        ? remainingToInvest : underlyingBalanceInVault();\n    }\n  }\n\n  function invest() internal whenStrategyDefined {\n    uint256 availableAmount = availableToInvestOut();\n    if (availableAmount > 0) {\n      underlying.safeTransfer(address(strategy), availableAmount);\n      emit Invest(availableAmount);\n    }\n  }\n\n  /*\n  * Allows for depositing the underlying asset in exchange for shares.\n  * Approval is assumed.\n  */\n  function deposit(uint256 amount) external defense {\n    _deposit(amount, msg.sender, msg.sender);\n  }\n\n  /*\n  * Allows for depositing the underlying asset in exchange for shares\n  * assigned to the holder.\n  * This facilitates depositing for someone else (using DepositHelper)\n  */\n  function depositFor(uint256 amount, address holder) public defense {\n    _deposit(amount, msg.sender, holder);\n  }\n\n  function withdrawAll() public onlyControllerOrGovernance whenStrategyDefined {\n    strategy.withdrawAllToVault();\n  }\n\n  function withdraw(uint256 numberOfShares) external {\n    require(totalSupply() > 0, \"Vault has no shares\");\n    require(numberOfShares > 0, \"numberOfShares must be greater than 0\");\n    uint256 totalSupply = totalSupply();\n    _burn(msg.sender, numberOfShares);\n\n    uint256 underlyingAmountToWithdraw = underlyingBalanceWithInvestment()\n        .mul(numberOfShares)\n        .div(totalSupply);\n\n    if (underlyingAmountToWithdraw > underlyingBalanceInVault()) {\n      // withdraw everything from the strategy to accurately check the share value\n      if (numberOfShares == totalSupply) {\n        strategy.withdrawAllToVault();\n      } else {\n        uint256 missing = underlyingAmountToWithdraw.sub(underlyingBalanceInVault());\n        strategy.withdrawToVault(missing);\n      }\n      // recalculate to improve accuracy\n      underlyingAmountToWithdraw = Math.min(underlyingBalanceWithInvestment()\n          .mul(numberOfShares)\n          .div(totalSupply), underlyingBalanceInVault());\n    }\n\n    underlying.safeTransfer(msg.sender, underlyingAmountToWithdraw);\n\n    // update the withdrawal amount for the holder\n    withdrawals[msg.sender] = withdrawals[msg.sender].add(underlyingAmountToWithdraw);\n    emit Withdraw(msg.sender, underlyingAmountToWithdraw);\n  }\n\n  function _deposit(uint256 amount, address sender, address beneficiary) internal {\n    require(amount > 0, \"Cannot deposit 0\");\n    require(beneficiary != address(0), \"holder must be defined\");\n\n    if (address(strategy) != address(0)) {\n      require(strategy.depositArbCheck(), \"Too much arb\");\n    }\n\n    uint256 toMint = totalSupply() == 0\n        ? amount\n        : amount.mul(totalSupply()).div(underlyingBalanceWithInvestment());\n    _mint(beneficiary, toMint);\n\n    underlying.safeTransferFrom(sender, address(this), amount);\n\n    // update the contribution amount for the beneficiary\n    contributions[beneficiary] = contributions[beneficiary].add(amount);\n    emit Deposit(beneficiary, amount);\n  }\n}\n",
  "sourcePath": "/Users/bukowski/Repos/harvest/contracts/Vault.sol",
  "compiler": {
    "name": "solc",
    "version": "0.5.16+commit.9c3226ce.Emscripten.clang"
  },
  "schemaVersion": "3.2.0",
  "updatedAt": "2020-08-31T15:34:12.798Z",
  "devdoc": {
    "methods": {
      "allowance(address,address)": {
        "details": "See {IERC20-allowance}."
      },
      "approve(address,uint256)": {
        "details": "See {IERC20-approve}.     * Requirements:     * - `spender` cannot be the zero address."
      },
      "balanceOf(address)": {
        "details": "See {IERC20-balanceOf}."
      },
      "decimals()": {
        "details": "Returns the number of decimals used to get its user representation. For example, if `decimals` equals `2`, a balance of `505` tokens should be displayed to a user as `5,05` (`505 / 10 ** 2`).     * Tokens usually opt for a value of 18, imitating the relationship between Ether and Wei.     * NOTE: This information is only used for _display_ purposes: it in no way affects any of the arithmetic of the contract, including {IERC20-balanceOf} and {IERC20-transfer}."
      },
      "decreaseAllowance(address,uint256)": {
        "details": "Atomically decreases the allowance granted to `spender` by the caller.     * This is an alternative to {approve} that can be used as a mitigation for problems described in {IERC20-approve}.     * Emits an {Approval} event indicating the updated allowance.     * Requirements:     * - `spender` cannot be the zero address. - `spender` must have allowance for the caller of at least `subtractedValue`."
      },
      "increaseAllowance(address,uint256)": {
        "details": "Atomically increases the allowance granted to `spender` by the caller.     * This is an alternative to {approve} that can be used as a mitigation for problems described in {IERC20-approve}.     * Emits an {Approval} event indicating the updated allowance.     * Requirements:     * - `spender` cannot be the zero address."
      },
      "name()": {
        "details": "Returns the name of the token."
      },
      "symbol()": {
        "details": "Returns the symbol of the token, usually a shorter version of the name."
      },
      "totalSupply()": {
        "details": "See {IERC20-totalSupply}."
      },
      "transfer(address,uint256)": {
        "details": "See {IERC20-transfer}.     * Requirements:     * - `recipient` cannot be the zero address. - the caller must have a balance of at least `amount`."
      },
      "transferFrom(address,address,uint256)": {
        "details": "See {IERC20-transferFrom}.     * Emits an {Approval} event indicating the updated allowance. This is not required by the EIP. See the note at the beginning of {ERC20};     * Requirements: - `sender` and `recipient` cannot be the zero address. - `sender` must have a balance of at least `amount`. - the caller must have allowance for `sender`'s tokens of at least `amount`."
      }
    }
  },
  "userdoc": {
    "methods": {
      "doHardWork()": {
        "notice": "Chooses the best strategy and re-invests. If the strategy did not change, it just calls doHardWork on the current strategy. Call this through controller to claim hard rewards."
      }
    }
  }
}